:100000004DC0000068C0000066C0000064C0000071
:1000100062C0000060C000005EC000005CC0000064
:100020005AC0000058C0000056C0000054C0000074
:1000300052C0000024C100004EC000004CC00000AF
:100040004AC0000048C0000046C0000044C0000094
:1000500042C0000040C000003EC000003CC00000A4
:100060003AC0000038C0000036C0000034C00000B4
:1000700032C0000030C000002EC000002CC00000C4
:100080002AC0000028C0000026C000008D009B0090
:100090007E00E900B400C20085009B0011241FBE51
:1000A000CFEFD0E4DEBFCDBF11E0A0E0B1E0E6EBE2
:1000B000F4E000E00BBF02C007900D92A430B1073E
:1000C000D9F721E0A4E0B1E001C01D92A632B20749
:1000D000E1F711D1EEC194CFE82F80B1809582FB7A
:1000E000222720F930E08E2F90E08830910520F40F
:1000F000FC01EA5BFF4FD4C180E072C08091240113
:1001000090912501069740F516C0809124019091A9
:1001100025010C9708F04FC027C0109225011092BE
:10012000240110921C0110921B01109223011092C5
:10013000220181E055C08091240190912501019612
:1001400090932501809324011092230110922201A3
:1001500082E040E050E044C010922501109224015A
:1001600083E041E050E03CC0809122019091230166
:10017000822B932B909323018093220185E040E012
:1001800050E02EC08091240190912501019690931A
:100190002501809324010C9700F580912201909114
:1001A0002301880F991F909323018093220186E0F9
:1001B00040E051E015C01092250110922401809179
:1001C00022019091230190931C0180931B0187E0F1
:1001D00007C084E040E050E003C086E040E051E02A
:1001E000220F331F220F331F252B942F990F292BFA
:1001F00022B90895823060F490911B0180911C0116
:1002000090931A018BB980911A0185B981E0089504
:1002100080E00895609300017093010180930201D2
:100220009093030160931D0170931E0180931F0141
:100230009093200108958BE0809381008DE790E0FA
:10024000909389008093880082E080936F001092E1
:100250008500109284008091000190910101A0918D
:100260000201B091030180931D0190931E01A093A0
:100270001F01B09320018FB780688FBF08951F9230
:100280000F920FB60F9211248F939F93AF93BF934A
:1002900080911D0190911E01A0911F01B09120013C
:1002A0000197A109B10980931D0190931E01A093AC
:1002B0001F01B0932001892B8A2B8B2B99F481E0AD
:1002C000809321018091000190910101A091020190
:1002D000B091030180931D0190931E01A0931F0113
:1002E000B0932001BF91AF919F918F910F900FBE5E
:1002F0000F901F901895CF93DF9300D000D0CDB70B
:10030000DEB783E081B98CEF82B98FEF84B915B87D
:100310008AB91BB80F2EFDE0EF2EF02DF12C00E076
:1003200010E051E040E030E020E004C0E62EF72E7F
:10033000082F192F652F742F832F922F2E2D3F2DCD
:10034000402F512F8BD05E2D4F2D302F212F611537
:1003500071058105910551F761E070E080E090E062
:100360002E2D3F2D402F512F79D0EFE0F1E0FA8371
:10037000E9830F2EF4E0CF2EF1E0DF2EF02DDC82AA
:10038000CB828FEF80832183328343835483258301
:100390003683478350872CE630E032872187D601A9
:1003A0008C936DE070E080E090E0F60161837283F1
:1003B000838394832E2D3F2D402F512F4FD0D60174
:1003C00015962D933D934D935C9318978AEF90E08B
:1003D0001A969C938E9319976E2D7F2D802F912FB7
:1003E00019DF29DF7E01B5E0EB0EF11CFE0131962D
:1003F0006F01D6010D911D916D01F8014581568166
:100400006781708581819281A381B48148175907E2
:100410006A077B0769F480810184F285E02D90E012
:100420000995D8018C93F8011582168217821086DF
:10043000F80185819681A781B0850196A11DB11D26
:1004400085839683A783B087CE14DF0491F68091CD
:1004500021018823E1F310922101C8CFA1E21A2ED5
:10046000AA1BBB1BFD010DC0AA1FBB1FEE1FFF1F58
:10047000A217B307E407F50720F0A21BB30BE40BA8
:10048000F50B661F771F881F991F1A9469F76095EF
:100490007095809590959B01AC01BD01CF010895A9
:1004A000EE0FFF1F0024001C0BBE0790F691E02DFD
:0604B0000994F894FFCF4F
:0404B6000100000041
:00000001FF
