:1000000047C1000064C1000062C1000060C100007F
:100010005EC100005CC100005AC1000058C1000070
:1000200056C1000054C1000052C1000050C1000080
:100030004EC10000FCC100004AC1000048C10000E0
:1000400046C1000044C1000042C1000040C10000A0
:100050003EC100003CC100003AC1000038C10000B0
:1000600036C1000034C1000032C1000030C10000C0
:100070002EC100002CC100002AC1000028C10000D0
:1000800026C1000024C1000022C100000F042B047F
:100090004E047204B9040005DC0495042605C2056B
:1000A000C8059705C006A405BB05AD05C006B40587
:1000B000000000000000005F0000000700070014BF
:1000C0007F147F14242A7F2A12231308646236497E
:1000D0005522500005030000001C2241000041226F
:1000E0001C0014083E081408083E080800503000A0
:1000F00000080808080800606000002010080402DA
:100100003E5149453E00427F4000426151494621EF
:1001100041454B311814127F1027454545393C4A5B
:1001200049493001710905033649494936064949AB
:10013000291E003636000000563600000814224101
:100140000014141414140041221408020151090669
:10015000324979413E7E1111117E7F494949363E2F
:10016000414141227F4141221C7F494949417F0948
:100170000909013E4149497A7F0808087F00417F0B
:1001800041002040413F017F081422417F40404010
:10019000407F020C027F7F0408107F3E4141413EB8
:1001A0007F090909063E4151215E7F09192946460A
:1001B0004949493101017F01013F4040403F1F2033
:1001C00040201F3F4038403F631408146307087005
:1001D00008076151494543007F414100020408106E
:1001E000200041417F0004020102044040404040A1
:1001F000000102040020545454787F4844443838A5
:1002000044444420384444487F3854545418087EA9
:100210000901020C5252523E7F0804047800447DCA
:1002200040002040443D007F1028440000417F40B2
:10023000007C041804787C0804047838444444386A
:100240007C14141408081414187C7C08040408484E
:1002500054545420043F4440203C4040207C1C2007
:1002600040201C3C4030403C44281028440C505056
:10027000503C4464544C44000836410000007F0068
:1002800000004136080010080810080000000000B7
:1002900011241FBECFEFD0E4DEBFCDBF12E0A0E03F
:1002A000B1E0E4E2FBE100E00BBF02C007900D9279
:1002B000A831B107D9F724E1A8E1B2E001C01D924D
:1002C000A335B207E1F70E94910C0C94900D98CEE3
:1002D0005998662311F05B9A15C05B9813C0AC0166
:1002E000022E02C0559547950A94E2F740FF02C0DE
:1002F0005C9A01C05C985D9A5D982150310978F74D
:10030000599A089527E030E090E0E9CF60E0E0CF2F
:100310000895813009F44FC008F444C0843021F0BE
:10032000853071F080E008958091470290914802F5
:10033000059708F440C0109248021092470234C05A
:100340008091470290914802059770F110924802FF
:100350001092470230C08FEF85B981E0809346024A
:1003600003C015B81092460280914702909148024E
:100370000196909348028093470284E0089515B84F
:1003800081E08093460203C015B810924602809126
:100390004702909148020196909348028093470249
:1003A00085E0089581E0089580914B0290914C0280
:1003B00096FDE5CFE9CF80914B0290914C0296FDDE
:1003C000CACFCFCF6093E8017093E9018093EA012F
:1003D0009093EB0160934704709348048093490421
:1003E00090934A0408958BE0809381008DE790E01C
:1003F000909389008093880082E080936F00109230
:100400008500109284008091E8019091E901A0910B
:10041000EA01B091EB018093470490934804A093C4
:100420004904B0934A048FB780688FBF08951F9224
:100430000F920FB60F9211248F939F93AF93BF9398
:100440008091470490914804A0914904B0914A04D6
:100450000197A109B1098093470490934804A093A0
:100460004904B0934A04892B8A2B8B2B99F481E0A1
:1004700080934B048091E8019091E901A091EA01F9
:10048000B091EB018093470490934804A0934904F2
:10049000B0934A04BF91AF919F918F910F900FBE7F
:1004A0000F901F901895109A119A0895119A109A0A
:1004B000119820B130E02095309522FB882780F9F3
:1004C00090E040E150E01098880F991F20B130E093
:1004D0002095309522FB662760F970E0862B972BDC
:1004E000109A4150510979F70895823038F4DEDFCF
:1004F00090934C0280934B0281E0089580E0089530
:10050000CF93DF93519A529A539A549A559A5A9A82
:10051000599A8FE493EC0197F1F700C000005A98C4
:100520009FEB25E484E0915020408040E1F700C03B
:1005300000005A9A599881E2E9DE83E1E7DE86E01D
:10054000E5DE82ECE3DE80E2E1DE89E0DFDE80E80A
:10055000DDDE80E4DBDEC8EFD1E061E080E0B8DE24
:100560002197D9F788E0D2DE8CE0D0DEDF91CF9101
:10057000089580E8CBDE80E4C9DE10924504109235
:100580004604EDE4F2E085E494E01192E817F907FF
:10059000E1F70895262F26952695269590E034E5D7
:1005A000239F800D911D1124442379F0FC01E35B0E
:1005B000FD4F677081E090E002C0880F991F6A9537
:1005C000E2F79081892B80830895FC01E35BFD4F66
:1005D000677081E090E002C0880F991F6A95E2F78A
:1005E000809590818923808308955F926F927F9296
:1005F0008F929F92AF92BF92CF92DF92EF92FF9233
:100600000F931F93CF93DF93562E262F30E049018F
:10061000880C991C880C991C820E931E18141904BE
:100620000CF05BC08901000F111F000F111F000F9C
:10063000111F021B130B612CA82EB12CC501809732
:100640005C01AA0CBB1CAA0CBB1CA80EB91E0F2E69
:10065000F6E4CF2EF4E0DF2EF02D0F2EF5E4EF2E92
:10066000F4E0FF2EF02D2BC0FE01249130E0872D09
:10067000652D0E94460D02C0359527958A95E2F7B3
:1006800020FF09C0F6016081670DF701808141E01C
:10069000860D80DF08C0F6016081670DF70180815B
:1006A00040E0860D77DF7394872D90E080179107E7
:1006B000DCF26394862D90E08815990574F4101689
:1006C0001106BCF7862D652D0E94460DE501C80F69
:1006D000D11DC055DF4F712CC7CF8091450491E0EB
:1006E000980F852D880F880F850D890F843518F494
:1006F000809345040EC010924504E6E4F4E0808146
:1007000091E0980F852D880F880F880F8519890F24
:10071000808380914604803320F01092450410922B
:100720004604DF91CF911F910F91FF90EF90DF90E2
:10073000CF90BF90AF909F908F907F906F905F9081
:1007400008951F93CF93DF93EC018881882339F0BC
:10075000162F2196612F49DF89918111FBCFDF91FF
:10076000CF911F9108950F931F93CF93DF9380E84C
:10077000CDDD80E4CBDDCDE4D2E005E414E061E042
:100780008991A6DDC017D107D1F7DF91CF911F91D5
:100790000F9108952F923F924F925F926F927F92A6
:1007A0008F929F92AF92BF92CF92DF92EF92FF9281
:1007B0000F931F93CF93DF9300D000D000D0CDB71D
:1007C000DEB78EE394E160E070E00F2EF0EDAF2E27
:1007D000F1E0BF2EF02D0F2EF8EE8F2EF1E09F2EC0
:1007E000F02D0F2EF8E86F2EF1E07F2EF02D0F2E5A
:1007F000F8E54F2EF1E05F2EF02D48EB51E01C01A3
:100800007A8369836AC1ED91CE2ED12C89E0C81616
:10081000D10468F4F601EA5BFF4F0C94520D698134
:100820007A81620F731F63587B4F9CE011C069810E
:100830007A81620F731F63587B4F9CE037C111921E
:100840008150E9F791506C5A7F4F992309F431C1D7
:10085000FB018CE0F4CFE0EAF1E0FC83EB836981FB
:100860007A81620F731F63587B4F7F01F701C1903C
:10087000D1907F018B018CE0F6016D019E2F91706C
:10088000D8019D938D01F695E7958150B9F7D60172
:100890006C5A7F4F4E155F0549F70BC1E0EAF1E056
:1008A000FC83EB8369817A81620F731F63587B4FEE
:1008B0007F01F701C190D1907F018B0180E0F601AB
:1008C0006D019E2F9170D8019D938D01F695E7954E
:1008D0008F5F8C30B1F7D6016C5A7F4F4E155F0594
:1008E00041F7E7C0E0E4F1E0FC83EB8369817A81C2
:1008F000620F731F63587B4F7F01F701C190D19046
:100900007F018B018CE0F6016D019E2F9170D80163
:100910009D938D01F695E7958150B9F7D6016C5AF4
:100920007F4F4E145F0449F7C4C0E0E7F1E0FC8359
:10093000EB8369817A81620F731F63587B4F7F015C
:10094000F701C190D1907F018B0180E0F6016D012C
:100950009E2F9170D8019D938D01F695E7958F5F3D
:100960008C30B1F7D6016C5A7F4F6E147F0441F77B
:10097000A0C0E0EDF1E0FC83EB8369817A81620F36
:10098000731F63587B4F7F01F701C190D1907F01A6
:100990008B018CE0F6016D019E2F9170D8019D9323
:1009A0008D01F695E7958150B9F7D6016C5A7F4FC6
:1009B000E814F90449F77DC0E8EBF1E0FC83EB8330
:1009C00069817A81620F731F63587B4F7F01F70142
:1009D000C190D1907F018B0180E0F6016D019E2FC7
:1009E0009170D8019D938D01F695E7958F5F8C30BE
:1009F000B1F7D6016C5A7F4FAE14BF0441F759C00E
:100A0000E8E8F1E0FC83EB8369817A81620F731F70
:100A100063587B4F7F01F701C190D1907F018B011B
:100A200080E0F6016D019E2F9170D8019D938D019C
:100A3000F695E7958F5F8C30B1F7D6016C5A7F4FF2
:100A4000E0EAF1E0EE15FF0531F733C088E591E00B
:100A50009C838B8369817A81620F731F63587B4FFC
:100A60007C01F701C190D1907F018B018CE0BE83A6
:100A7000AD83F6019E2F9170D8019D938D01F6955F
:100A8000E7958150B9F7AD81BE816C5A7F4FE0E7A1
:100A9000EE16E1E0FE0629F70CC011928F5F8C3054
:100AA000E1F791506C5A7F4F992319F0FB0180E0D8
:100AB000F4CF245F3F4F2435310509F0A4CE89815E
:100AC0009A8180519C4F9A83898397E0290E311C2B
:100AD000A981BA81A03DBB4021F0D10120E030E0E6
:100AE00092CE26960FB6F894DEBF0FBECDBFDF9133
:100AF000CF911F910F91FF90EF90DF90CF90BF901B
:100B0000AF909F908F907F906F905F904F903F90AD
:100B10002F9008951F93CF93DF93482F50E04930D3
:100B2000510508F09AC5FA01E15BFF4FBBC7809100
:100B30004B0290914C0294FF2BC021E031E04EE338
:100B400054E166E171E0B6C080917C048111D4C0AB
:100B500080916004811169C513C120914B023091CD
:100B60004C0234FD0DC17AC520914B0230914C02EC
:100B700034FD06C173C580914B0290914C0294FDE7
:100B800007C053C5109265041092640481E066C5E5
:100B900082E080930001E0916404F0916504CFE469
:100BA000D4E09F01ADECBCEC86D7AC0156954795DF
:100BB00056954795569547959A01220F331FCA01BE
:100BC000880F991F880F991F880F991F820F931FF5
:100BD0009F01281B390BC901805D8A839A016BD75D
:100BE0009695879596958795969587959C01220F62
:100BF000331F880F991F880F991F880F991F820F25
:100C0000931F481B590B405D49839F0136952795DB
:100C100036952795ABE7B4E14ED7AC01569547958D
:100C20009A01ADECBCEC47D796958795969587953C
:100C3000969587959C01220F331F880F991F880F67
:100C4000991F880F991F820F931F481B590B405DF6
:100C5000488380914B0290914C0284FF08C0BF01F1
:100C600080914402909145023AD782E0F7C485FF13
:100C70000BC080914402909145022CD7909365045B
:100C80008093640482E0EAC495FFE3C460E070E00E
:100C9000809144029091450222D782E0DFC4919175
:100CA0009D938150E1F7295F3F4F495F5F4F2617C2
:100CB000370721F0DA01F90187E0F1CFE6E5F4E04A
:100CC00010821182138284E08093000110927C04D0
:100CD00081E080934C041092600410924E041092B4
:100CE0004D0484E190E090937B0480937A04109209
:100CF000520450DD83E0B2C420914C042F5F209356
:100D00004C0485E1289F9001112424513F4F4EE36C
:100D100054E163E574E10BC091919D938150E1F73B
:100D2000295F3F4F495F5F4F4617570721F0DA01B0
:100D3000F90187E0F1CFE6E5F4E010821182138239
:100D400020914D0430914E0480917A0490917B045F
:100D5000820F931F90934E0480934D0487E08093FD
:100D6000000110927C041092600484E190E0909362
:100D70007B0480937A04109252040CDD87E06EC4E9
:100D800080915904811110C080914B0290914C02C6
:100D9000992354F4E6E5F4E081E083838081848341
:100DA000818185831782168260915604663009F42A
:100DB00052C080914B0290914C0290FF49C08091AB
:100DC0005704262F30E0482F50E0F90197E0899F23
:100DD000E00DF11D1124E25CFB4E8181811119C0EF
:100DE000CA01880F991F880F991F880F991F841BAC
:100DF000950B825C9B4EFC01E20FF31F108221E0F9
:100E0000260F20935604FC01E20FF11D24E02083FD
:100E10002DC1833009F02AC1CA01880F991F880F9C
:100E2000991F880F991F841B950B825C9B4EFC01B8
:100E3000E20FF31F108221E0260F20935604FC01DD
:100E4000E20FF11D24E0208381E080937C040EC139
:100E5000662309F44FC080914B0290914C0291FFA0
:100E600049C080915704462F50E0282F30E0FA0106
:100E7000A7E08A9FE00DF11D1124E35CFB4E808109
:100E8000811119C0C901880F991F880F991F880FF8
:100E9000991F821B930B825C9B4EFC01E40FF51F94
:100EA00010822FEF260F20935604FC01E20FF11D54
:100EB00024E02083DBC0833009F0D8C0C901880F4B
:100EC000991F880F991F880F991F821B930B825CB3
:100ED0009B4EFC01E40FF51F10822FEF260F20938D
:100EE0005604FC01E20FF11D24E0208381E0809391
:100EF0007C04BCC080915704882309F45EC0209113
:100F00004B0230914C0233FF55C0A82FB0E0262F82
:100F100030E0AD0141505109FA01EE0FFF1FEE0F15
:100F2000FF1FEE0FFF1FE41BF50BE25CFB4EE20F11
:100F3000F31F908191111CC0FD01EE0FFF1FEE0FFA
:100F4000FF1FEE0FFF1FEA1BFB0BE25CFB4EE20FE5
:100F5000F31F1082815080935704B7E08B9F200DC0
:100F6000311D1124F901E25CFB4E84E080837EC0D8
:100F7000933009F07BC0FD01EE0FFF1FEE0FFF1F46
:100F8000EE0FFF1FEA1BFB0BE25CFB4EE20FF31FB1
:100F90001082815080935704C7E08C9F200D311D33
:100FA0001124F901E25CFB4E84E0808381E08093B0
:100FB0007C045CC0823009F459C020914B0230910E
:100FC0004C0232FF53C0A82FB0E0262F30E0AD0115
:100FD0004F5F5F4FFA01EE0FFF1FEE0FFF1FEE0F87
:100FE000FF1FE41BF50BE25CFB4EE20FF31F908149
:100FF00091111CC0FD01EE0FFF1FEE0FFF1FEE0F42
:10100000FF1FEA1BFB0BE25CFB4EE20FF31F10829B
:101010008F5F80935704D7E08D9F200D311D1124E1
:10102000F901E25CFB4E84E0808320C09330F1F450
:10103000FD01EE0FFF1FEE0FFF1FEE0FFF1FEA1B5C
:10104000FB0BE25CFB4EE20FF31F10828F5F80937D
:10105000570497E0899F200D311D1124F901E25CAE
:10106000FB4E84E0808381E080937C04E6E5F4E03D
:1010700024818081821304C091818581981781F039
:1010800080915904882361F0E0915B04A7E0EA9F16
:10109000F0011124E25CFB4EE20FF11D86E080833B
:1010A00080913D148823B9F0A82FB0E0AA0FBB1F90
:1010B000AC59BB4F1196EC9111979C91B7E0EB9F07
:1010C000F0011124E25CFB4EE90FF11D108281500A
:1010D00059F710923D1480915C0490915D048E311B
:1010E000910558F420915904222309F4C5C10196B1
:1010F00090935D0480935C04BFC180915904882360
:1011000009F4BAC130915B04622F70E0A32FB0E004
:10111000FB01C7E03C9FE00DF11D1124E25CFB4E9A
:10112000108190914902E92FF0E0AF014D5A5B4FD9
:101130008AE0EA01888380914A02482F50E04150BA
:101140005109E417F5071CF01092490203C09F5F94
:10115000909349028F5F80934A02143021F481E01A
:101160008093600417C0CD01880F991F880F991FC5
:10117000880F991F8A1B9B0B825C9B4EFC01E60F1C
:10118000F71F48E04083E6E6F4E02083318381E006
:1011900080933D1480915A04863009F45CC04091DC
:1011A0005B04282F30E02F5F3F4F642F70E0F90180
:1011B000D7E04D9FE00DF11D1124E25CFB4E9081C4
:1011C000923070F5FB01EE0FFF1FEE0FFF1FEE0FC9
:1011D000FF1FDF01A61BB70BBD01625C7B4EFB014D
:1011E000E20FF31F58E0508320913D14E22FF0E00E
:1011F000EE0FFF1FEA59FB4F31E0380F3083418378
:101200002F5F20933D14913019F520914D043091BA
:101210004E042F5F3F4F30934E0420934D0418C06F
:10122000923089F4AB01440F551F440F551F440FF2
:10123000551F461B570B425C5B4EFA01E20FF31F32
:1012400093E0908305C0943019F491E0909360048A
:10125000882309F456C020915B04E82FF0E0AF0129
:1012600041505109622F70E0FA01B7E02B9FE00D69
:10127000F11D1124E25CFB4E9081923058F5FB0188
:10128000EE0FFF1FEE0FFF1FEE0FFF1FE61BF70B0A
:10129000E25CFB4EE40FF51F38E0308330913D14E3
:1012A000E32FF0E0EE0FFF1FEA59FB4F4FEF480F1F
:1012B000408321833F5F30933D14913011F520919D
:1012C0004D0430914E042F5F3F4F30934E042093D6
:1012D0004D0417C0923081F4FB01EE0FFF1FEE0F9B
:1012E000FF1FEE0FFF1FE61BF70BE25CFB4EE40F48
:1012F000F51F93E0908305C0943019F491E090932A
:10130000600490915B04992309F45BC0292F30E0BD
:1013100021503109682F70E0F901EE0FFF1FEE0F29
:10132000FF1FEE0FFF1FE21BF30BE25CFB4EE60F0D
:10133000F71F4081423058F5F901EE0FFF1FEE0F05
:10134000FF1FEE0FFF1FE21BF30BE25CFB4EE60FED
:10135000F71F28E0208320913D14E22FF0E0EE0FEC
:10136000FF1FEA59FB4F80833FEF390F31832F5F17
:1013700020933D14413011F520914D0430914E04DD
:101380002F5F3F4F30934E0420934D0417C04230DF
:1013900081F4F901EE0FFF1FEE0FFF1FEE0FFF1F8D
:1013A000E21BF30BE25CFB4EE60FF71F23E020830A
:1013B00005C0443019F421E020936004923009F410
:1013C00056C0292F30E02F5F3F4F682F70E0F901A2
:1013D000EE0FFF1FEE0FFF1FEE0FFF1FE21BF30BC1
:1013E000E25CFB4EE60FF71F4081423048F5F90101
:1013F000EE0FFF1FEE0FFF1FEE0FFF1FE21BF30BA1
:10140000E25CFB4EE60FF71F28E0208320913D149D
:10141000E22FF0E0EE0FFF1FEA59FB4F80839F5F42
:1014200091832F5F20933D14413009F580914D0445
:1014300090914E04019690934E0480934D0417C0F2
:10144000423081F4F901EE0FFF1FEE0FFF1FEE0F88
:10145000FF1FE21BF30BE25CFB4EE60FF71F83E07E
:10146000808305C0443019F481E080936004E6E590
:10147000F4E01782168213828DD9C0914D04D09169
:101480004E04EFE4F4E09E01ADECBCEC14D3AC01EF
:101490005695479556954795569547959A01220F2B
:1014A000331FCA01880F991F880F991F880F991F32
:1014B000820F931F9E01281B390BC901805D828317
:1014C0009A01F9D2969587959695879596958795E1
:1014D0009C01220F331F880F991F880F991F880FB7
:1014E000991F820F931F481B590B405D41839E013A
:1014F0003695279536952795ABE7B4E1DCD2AC015C
:10150000569547959A01ADECBCECD5D2969587954A
:1015100096958795969587959C01220F331F880F86
:10152000991F880F991F880F991F820F931F481BBF
:10153000590B405D4083809152048A3088F080913D
:101540007A0490917B04019790937B0480937A04B2
:10155000892B19F481E0809360041092520403C037
:101560008F5F80935204C0917A04D0917B04E1E6AE
:10157000F4E09E01ADECBCEC9ED2AC0156954795D3
:1015800056954795569547959A01220F331FCA01E4
:10159000880F991F880F991F880F991F820F931F1B
:1015A000DE01A81BB90BCD01805D82839A01ADECF1
:1015B000BCEC81D29695879596958795969587955B
:1015C0009C01220F331F880F991F880F991F880FC6
:1015D000991F820F931F481B590B405D41839E0149
:1015E0003695279536952795ABE7B4E164D2AC01E3
:1015F000569547959A01ADECBCEC5DD296958795D2
:1016000096958795969587959C01220F331F880F95
:10161000991F880F991F880F991F820F931F481BCE
:10162000590B405D408384E019C085E08093000140
:1016300080914D0490914E04209164043091650492
:101640002817390740F4909365048093640485E07B
:1016500005C082E003C085E001C080E0DF91CF914A
:101660001F910895CF92DF92EF92FF920F931F93F5
:10167000CF93DF930F2EFDE7EF2EF4E0FF2EF02D3A
:10168000D0E010C0F80141918F016D2F8C2F0E9486
:10169000CA02CF5FC435B1F7DF5FF4E5EF0EF11C8E
:1016A000D03319F08701C0E0EDCF0F2EF5E4EF2E17
:1016B000F4E0FF2EF02DF7011082C6E4D4E018E22A
:1016C000188361E083E50E94F5028AE0F7018083D8
:1016D00018830F2EFFE4CF2EF4E0DF2EF02D61E013
:1016E000F60180810E94F5028FE0F7018083188364
:1016F00061E0F60181810E94F50284E1F7018083B7
:10170000188361E0F60182810E94F50287E3F70108
:101710008083188361E084E50E94F50281E4F7018B
:10172000808318830F2EF1E6CF2EF4E0DF2EF02D0C
:1017300061E0F60180810E94F50286E4F701808372
:10174000188361E0F60181810E94F5028BE4F701C4
:101750008083188361E0F60182810E94F502DF91A7
:10176000CF911F910F91FF90EF90DF90CF90089550
:10177000CF92DF92FF920F931F93CF93DF938091CD
:101780004602882351F0109245048AE08093460473
:1017900061E084EF91E00E94A10305E414E0F80108
:1017A0001082C6E4D4E084E1888361E089E092E0BD
:1017B0000E94A103F80110820F2EFEE1DF2EF02D12
:1017C000D88261E08EEF91E00E94A103F8011082BF
:1017D0000F2EF8E2FF2EF02DF88261E088E40E94DF
:1017E000F50285E0F8018083F88261E089E60E94D5
:1017F000F5028AE0F8018083F88261E087E60E94C2
:10180000F5028FE0F8018083F88261E088E60E94AB
:10181000F50289E1F8018083F88261E083E50E94A6
:10182000F502F801D082F88261E083E60E94F502B9
:1018300083E2F8018083F88261E08FE60E94F5027E
:10184000F801F082F88261E082E70E94F5028DE201
:10185000F8018083F88261E085E60E94F50282E368
:10186000F8018083F88261E08AE30E94F5028CE34C
:10187000F8018083F8820F2EFFE4CF2EF4E0DF2EF4
:10188000F02D61E0F60180810E94F50281E4F8010B
:101890008083F88261E0F60181810E94F50286E48E
:1018A000F8018083F88261E0F60182810E94F502EE
:1018B000DF91CF911F910F91FF90DF90CF9008950E
:1018C000823059F028F4882331F18130B1F025C0FD
:1018D000833041F0843069F020C080910001843071
:1018E00061F412C080910001823039F0853061F4DA
:1018F00016C090910001923099F40E94B90238DF2D
:101900000E94B30382E008950E94B902ABDE0E94F8
:10191000B30383E0089581E0089580E0089584E0B2
:101920000895CF93DF93CDB7DEB728970FB6F8941D
:10193000DEBF0FBECDBF83E081B98CEF82B91FEF50
:1019400014B915B81AB91BB80E9480020E94B902D6
:101950000E94B3030E94530288E0ECEEF1E0DE0146
:10196000119601900D928A95E1F7E9E3F2E0108378
:1019700081E090E0A0E0B0E081839283A383B48310
:1019800085839683A783B08725E732E03287218756
:10199000EEE2F2E010834AE050E060E070E0418364
:1019A00052836383748385839683A783B08720E6FD
:1019B0003CE032872187E3E2F2E0108341835283E7
:1019C0006383748385839683A783B0878AE895E0D1
:1019D00092878187E8E1F2E0108384E690E0A0E05E
:1019E000B0E081839283A383B48345835683678366
:1019F000708789E891E0928781876AE070E080E0F3
:101A000090E00E94E2010E94F3017E0189E0E80E6D
:101A1000F11CDE0111966D01F601019111916F012A
:101A2000D80115964D915D916D917C911897119605
:101A30008D919D910D90BC91A02D481759076A0773
:101A40007B0771F4F80180810184F285E02D90E03C
:101A50000995D8018C93F801158216821782108699
:101A6000F80185819681A781B0850196A11DB11DE0
:101A700085839683A783B087EC14FD0469F6809173
:101A80004B048823E1F310924B04C3CF991B79E0F8
:101A900004C0991F961708F0961B881F7A95C9F7FE
:101AA00080950895EE0FFF1F0024001C0BBE0790C9
:101AB000F691E02D0994A29FB001B39FC001A39FAE
:101AC000700D811D1124911DB29F700D811D112477
:101AD000911D0895A8E1B0E042E050E005C012D0A9
:101AE000272F11C0DC01CB01FC01F999FECF06C004
:101AF000F2BDE1BDF89A319600B40D9241505040CC
:101B0000B8F70895262FF999FECF1FBA92BD81BD6F
:101B100020BD0FB6F894FA9AF99A0FBE019608956F
:041B2000F894FFCF67
:101B24000204000100000000000700070007010292
:101B34000000000000000400000000000000070096
:101B4400070007000000000200000004000000007D
:101B5400000000070007000700000000000000026A
:101B6400F8016402620462046108610861086D0B93
:101B7400610861086108FF0FEC0312040204020407
:101B84000208010801080108030802046402B803FA
:101B9400AB0A5705FF030F0217020F0207022F02B9
:101BA4005702FF035705AB0AFC030606030C9D0B03
:101BB4009D0B9909030C0E07F8015801A801F000C8
:101BC400AE075F0FAF0FFA0AF707FA0AAF0F7F0FDE
:101BD400AF0FFA0AF707FA021C001600FA003A01DE
:101BE400F402EE07FE079E059E047C02F801F00055
:101BF400FC03FE071C0D990999090C03FE07FC035D
:101C040090009000F6060F0F0100000039022E022A
:101C14002302180252554D424C494E472100534568
:101C24004C3A20434C45415200523A5341564520C8
:081C34004C3A4C4F4144000002
:00000001FF
