S01600006A696D3031315F70726F6A6563742E73726563E6
S11300004DC0000068C0000066C0000064C000006D
S113001062C0000060C000005EC000005CC0000060
S11300205AC0000058C0000056C0000054C0000070
S113003052C0000035C100004EC000004CC000009A
S11300404AC0000048C0000046C0000044C0000090
S113005042C0000040C000003EC000003CC00000A0
S11300603AC0000038C0000036C0000034C00000B0
S113007032C0000030C000002EC000002CC00000C0
S11300802AC0000028C0000026C00000AE00BC004A
S11300909F000A01D500E300A600BC0011241FBE86
S11300A0CFEFD0E4DEBFCDBF11E0A0E0B1E0ECE4DF
S11300B0FBE000E00BBF02C007900D92A238B1072D
S11300C0D9F723E1A2E8B1E001C01D92A538B20737
S11300D0E1F72BD439C594CF2998662311F02B9AD4
S11300E015C02B9813C0AC01022E02C0559547953C
S11300F00A94E2F740FF02C02C9A01C02C982D9A72
S11301002D982150310978F7299A089527E030E095
S113011090E0E9CF60E0E0CF0895E82F80B18095CA
S113012082FB222720F930E08E2F90E08830910561
S113013020F4FC01EA5BFF4FFEC480E072C08091B2
S1130140AE039091AF03069740F516C08091AE03BD
S11301509091AF030C9708F04FC027C01092AF03E3
S11301601092AE031092A4011092A3011092AD0359
S11301701092AC0381E055C08091AE039091AF031F
S113018001969093AF038093AE031092AD03109247
S1130190AC0382E040E050E044C01092AF03109200
S11301A0AE0383E041E050E03CC08091AC03909109
S11301B0AD03822B932B9093AD038093AC0385E026
S11301C040E050E02EC08091AE039091AF030196C1
S11301D09093AF038093AE030C9700F58091AC032A
S11301E09091AD03880F991F9093AD038093AC0356
S11301F086E040E051E015C01092AF031092AE03C8
S11302008091AC039091AD039093A4018093A301DA
S113021087E007C084E040E050E003C086E040E0AF
S113022051E0220F331F220F331F252B942F990FD8
S1130230292B22B9089560937801709379018093F2
S11302407A0190937B0160939F037093A003809342
S1130250A1039093A20308958BE0809381008DE71E
S113026090E0909389008093880082E080936F00EF
S11302701092850010928400809178019091790108
S1130280A0917A01B0917B0180939F039093A00386
S1130290A093A103B093A2038FB780688FBF089582
S11302A01F920F920FB60F9211248F939F93AF93C7
S11302B0BF9380919F039091A003A091A103B0915B
S11302C0A2030197A109B10980939F039093A0030E
S11302D0A093A103B093A203892B8A2B8B2B99F4AF
S11302E081E08093A3038091780190917901A0919A
S11302F07A01B0917B0180939F039093A003A09314
S1130300A103B093A203BF91AF919F918F910F90DE
S11303100FBE0F901F901895CF93DF93219A229AC6
S1130320239A249A259A2A9A299A83EC99E0019788
S1130330F1F700C000002A988BE594E40197F1F7E7
S113034000C000002A9A299881E2E4DE83E1E2DE1B
S113035086E0E0DE82ECDEDE80E2DCDE89E0DADE0E
S113036080E8D8DE80E4D6DEC8EFD1E061E080E04A
S1130370B3DE2197D9F788E0CDDE8CE0CBDEDF91C8
S1130380CF91089580E8C6DE80E4C4DE10929D0318
S113039010929E03E5EAF1E08DE993E01192E817EB
S11303A0F907E1F70895262F26952695269590E0DE
S11303B034E5239F800D911D1124442379F0FC0121
S11303C0EB55FE4F677081E090E002C0880F991FE3
S11303D06A95E2F79081892B80830895FC01EB559F
S11303E0FE4F677081E090E002C0880F991F6A9504
S11303F0E2F7809590818923808308950F931F935A
S1130400CF93DF9380E886DE80E484DEC5EAD1E022
S11304100DE913E061E089915FDEC017D107D1F7E0
S1130420DF91CF911F910F9108952F923F924F9298
S11304305F926F927F928F929F92AF92BF92CF9270
S1130440DF92EF92FF920F931F93CF93DF930F2EC0
S1130450F0E76F2EF3E17F2EF02D812C912C0F2EDF
S1130460F8E74F2EF1E05F2EF02D0F2EF0E6CF2EA1
S1130470F1E0DF2EF02D60E371E048E151E00F2E52
S1130480F8E4AF2EF1E0BF2EF02DCDC0F101819143
S11304901F01823009F45BC028F4882359F08130AD
S11304A019F10FC0843009F46CC008F483C085309E
S11304B0A1F107C08901080D191D00551C4FACE0BE
S11304C010C08901080D191D00551C4FACE096C0E1
S11304D01992E150E9F7A1500C5A1F4FAA2309F4CD
S11304E090C0E801ECE0F4CFC0E3D1E0C901880D8D
S11304F0991D8C0100551C4F89919991D801ECE00C
S1130500F82FF170FD9396958795E150C9F70C5A31
S11305101F4FCA15DB0581F774C0C0E0D1E0C901E3
S1130520880D991D8C0100551C4F89919991D80112
S1130530E0E0F82FF170FD9396958795EF5FEC302E
S1130540C1F70C5A1F4F4C175D0779F75AC0C0E624
S1130550D1E0C901880D991D8C0100551C4F89916A
S11305609991D801E0E0F82FF170FD939695879565
S1130570EF5FEC30C1F70C5A1F4F4C165D0679F74C
S113058040C0C8E4D1E0C901880D991D8C01005513
S11305901C4F89919991D801ECE0F82FF170FD93EB
S11305A096958795E150C9F70C5A1F4FCC16DD0676
S11305B081F727C0A8E1B1E0C901880D991DFC01AC
S11305C0E055FC4F7F018D919D91F701CCE0D82F30
S11305D0D170D19396958795C150C9F7F4E5EF0E84
S11305E0F11CA617B70779F70CC01992BF5FBC308E
S11305F0E1F7A1500C5A1F4FAA2319F0E801B0E00B
S1130600F4CF245F3F4F2435310509F03FCF80E11B
S1130610881A8CEF980AE7E06E0E711CF0ED8F16C5
S1130620FBE09F0621F0130120E030E02FCFDF91A3
S1130630CF911F910F91FF90EF90DF90CF90BF90DB
S1130640AF909F908F907F906F905F904F903F906E
S11306502F900895813031F008F42DC1843028F1B1
S113066080E0089520E733E145E853E108C01192A2
S11306708150E9F7295F3F4F2417350719F0F90135
S113068087E0F5CFE0E7F3E185E080878287848720
S113069081E08687858782E08083E4EAF3E0108244
S11306A011821382C2DE82E008958091A703811132
S11306B010C08091A3019091A40193FF0AC0E4EAC1
S11306C0F3E081E083838081848381818583178241
S11306D016828091A403863079F19091A30194FF4E
S11306E029C09091A503482F50E0692F70E0FA01CA
S11306F027E0929FE00DF11D1124E059FC4E9181F9
S11307009111BCC09B01220F331F220F331F220FF4
S1130710331F261B370B20593C4EF901E40FF51FFC
S113072010828F5F8093A403F901E80FF11D82E02A
S11307308083A4C0882369F19091A30195FF29C007
S11307409091A503482F50E0692F70E0FA0127E04B
S1130750929FE00DF11D1124E159FC4E90819111FD
S11307608DC09B01220F331F220F331F220F331F13
S1130770261B370B20593C4EF901E40FF51F10825C
S113078081508093A403F901E80FF11D82E0808376
S113079075C09091A5039923D1F12091A30127FF5E
S11307A034C0692F70E0282F30E0AB01415051096B
S11307B0FA01EE0FFF1FEE0FFF1FEE0FFF1FE41BEA
S11307C0F50BE059FC4EE20FF31F8081811156C0F6
S11307D0FB01EE0FFF1FEE0FFF1FEE0FFF1FE61BC7
S11307E0F70BE059FC4EE20FF31F108291509093E7
S11307F0A503A90167E0969F400D511D1124FA013C
S1130800E059FC4E82E0808339C09230B9F12091E6
S1130810A30126FF33C0692F70E0282F30E0AB011D
S11308204F5F5F4FFA01EE0FFF1FEE0FFF1FEE0F3A
S1130830FF1FE41BF50BE059FC4EE20FF31F808110
S113084081111CC0FB01EE0FFF1FEE0FFF1FEE0F07
S1130850FF1FE61BF70BE059FC4EE20FF31F10825B
S11308609F5F9093A503A90167E0969F400D511DDA
S11308701124FA01E059FC4E82E08083E4EAF3E0BB
S113088084819081981304C021819581291781F076
S11308909091A703992361F0E091A90397E0E99F60
S11308A0F0011124E059FC4EE80FF11D84E080832F
S11308B0BCDD83E0089581E00895EF92FF920F93E9
S11308C01F93CF93DF930F2EF0EBEF2EF3E0FF2E69
S11308D0F02DD0E00FC0F80141918F016D2F8C2FC6
S11308E062DDCF5FC435B9F7DF5FF4E5EF0EF11CCD
S11308F0D03319F08701C0E0EECFDF91CF911F9183
S11309000F91FF90EF900895882319F0833030F011
S11309100AC002DD37DD72DD81E0089533DDCDDF0D
S11309206DDD82E0089580E00895CF93DF9300D0D9
S113093000D000D0CDB7DEB783E081B98CEF82B9A7
S11309408FEF84B915B88AB91BB80F2EF4E6EF2ED1
S1130950F02DF12C00E010E051E040E030E020E028
S113096004C0E62EF72E082F192F652F742F832F1E
S1130970922F2E2D3F2D402F512FBBD05E2D4F2D6A
S1130980302F212F611571058105910551F754E62A
S113099040E030E020E004C0E62EF72E082F192FA7
S11309A0652F742F832F922F2E2D3F2D402F512FE3
S11309B0A0D05E2D4F2D302F212F6115710581059B
S11309C0910551F761E070E080E090E02E2D3F2D1D
S11309D0402F512F8ED029013A010F2EF4E68F2E8D
S11309E0912CA12CB12CF02DC501B4012E2D3F2D3D
S11309F0402F512F7ED086E0ECE7F1E0DE01119626
S1130A0001900D928A95E1F7E8E9F1E06FEF6083D8
S1130A1041825282638274824582568267827086E2
S1130A208DE890E092878187EDE8F1E06083818230
S1130A309282A382B482258336834783508784E8D5
S1130A4094E092878187E2E8F1E060838182928278
S1130A50A382B48225833683478350878AE293E056
S1130A60928781876E2D7F2D802F912FE4DBF4DB1D
S1130A707E0187E0E80EF11CDE0111966D01F6019E
S1130A80019111916F01D80115964D915D916D9170
S1130A907C91189711968D919D910D90BC91A02DEC
S1130AA0481759076A077B0771F4F80180810184AC
S1130AB0F285E02D90E00995D8018C93F801158218
S1130AC0168217821086F80185819681A781B085E8
S1130AD00196A11DB11D85839683A783B087CE148B
S1130AE0DF0469F68091A3038823E1F31092A30342
S1130AF0C3CFA1E21A2EAA1BBB1BFD010DC0AA1F66
S1130B00BB1FEE1FFF1FA217B307E407F50720F072
S1130B10A21BB30BE40BF50B661F771F881F991FED
S1130B201A9469F760957095809590959B01AC0136
S1130B30BD01CF010895EE0FFF1F0024001C0BBE62
S10F0B400790F691E02D0994F894FFCF83
S1130B4CAB0A5705FF030F0217020F0207022F020D
S1130B5C5702FF035705AB0AFC030606030C9D0B57
S1130B6C9D0B9909030C0E07F8015801A801F0001C
S1130B7CAE075F0FAF0FFA0AF707FA0AAF0F7F0F32
S1130B8CAF0FFA0AF707FA021C001600FA003A0132
S1130B9CF402EE07FE079E059E047C02F801F000A9
S1130BACFC03FE071C0D990999090C03FE07FC03B1
S1130BBC90009000F6060F0F0100000098018D01C3
S1050BCC8201A0
S9030000FC
