S01600006A696D3031315F70726F6A6563742E73726563E6
S11300005EC100007BC1000079C1000077C100001F
S113001075C1000073C1000071C100006FC1000010
S11300206DC100006BC1000069C1000067C1000020
S113003065C100000EC3000061C100005FC1000083
S11300405DC100005BC1000059C1000057C1000040
S113005055C1000053C1000051C100004FC1000050
S11300604DC100004BC1000049C1000047C1000060
S113007045C1000043C1000041C100003FC1000070
S11300803DC100003BC1000039C10000C201D001E4
S1130090B3011E02E901F701BA01D0016A05700536
S11300A01F052F05650555054F05AB06C706EA066E
S11300B00E0755079C0778073107C207DF0CE90CC8
S11300C09D0CAE0EAF0CD10CC30CAE0EAE0ECA0C12
S11300D025120212E411E911FE11F911F4110000C4
S11300E000000000005F00000007000700147F14F8
S11300F07F14242A7F2A1223130864623649552266
S1130100500005030000001C2241000041221C0095
S113011014083E081408083E08080050300000087F
S113012008080808006060000020100804023E511E
S113013049453E00427F40004261514946214145C4
S11301404B311814127F1027454545393C4A49491B
S11301503001710905033649494936064949291EC2
S11301600036360000005636000008142241001400
S113017014141414004122140802015109063249CE
S113018079413E7E1111117E7F494949363E4141F4
S113019041227F4141221C7F494949417F09090984
S11301A0013E4149497A7F0808087F00417F4100A8
S11301B02040413F017F081422417F404040407F5E
S11301C0020C027F7F0408107F3E4141413E7F09BB
S11301D00909063E4151215E7F09192946464949CC
S11301E0493101017F01013F4040403F1F20402031
S11301F01F3F4038403F6314081463070870080722
S11302006151494543007F41410002040810200028
S113021041417F000402010204404040404000018B
S113022002040020545454787F48444438384444E9
S11302304420384444487F3854545418087E0901F3
S1130240020C5252523E7F0804047800447D400060
S11302502040443D007F1028440000417F40007C42
S1130260041804787C0804047838444444387C1422
S1130270141408081414187C7C0804040848545402
S11302805420043F4440203C4040207C1C2040201B
S11302901C3C4030403C44281028440C5050503CF6
S11302A04464544C44000836410000007F000000C0
S11302B0413608001008081008000000000011244E
S11302C01FBECFEFD0E4DEBFCDBF14E0A0E0B1E0AD
S11302D0EAE4FCE200E00BBF02C007900D92A233F7
S11302E0B107D9F726E1A2E3B4E001C01D92AC3A0C
S11302F0B207E1F70E9427120C94231681CE599875
S1130300662311F05B9A15C05B9813C0AC01022EF2
S113031002C0559547950A94E2F740FF02C05C9AE3
S113032001C05C985D9A5D982150310978F7599A1B
S1130330089527E030E090E0E9CF60E0E0CF089551
S1130340E82F80B1809582FB222720F930E08E2FA0
S113035090E08830910528F4FC01EA5BFF4F0C948F
S1130360E51580E072C08091D2069091D30606977D
S113037040F516C08091D2069091D306409708F0BC
S11303804FC027C01092D3061092D20610928E044A
S113039010928D041092A2061092A10681E055C01D
S11303A08091D2069091D30601969093D3068093C0
S11303B0D2061092A2061092A10682E040E050E01C
S11303C044C01092D3061092D20683E041E050E07C
S11303D03CC08091A1069091A206822B932B90930E
S11303E0A2068093A10685E040E050E02EC08091F3
S11303F0D2069091D30601969093D3068093D206A9
S1130400409700F58091A1069091A206880F991F4C
S11304109093A2068093A10686E040E051E015C0C7
S11304201092D3061092D2068091A1069091A20652
S113043090938E0480938D0487E007C084E040E0AD
S113044050E003C086E040E051E0220F331F220F4A
S1130450331F252B942F990F292B22B9089581300E
S113046009F456C0E0F0843019F0853069F046C0D4
S11304708091880490918904059708F449C01092EA
S11304808904109288043FC0809188049091890463
S11304900597C8F1109289041092880439C010920B
S11304A0850481E02CC08FEF8093850481E08093E4
S11304B0870404C0109285041092870480918804F4
S11304C0909189040196909389048093880484E030
S11304D016C01092850481E08093870404C01092B2
S11304E08504109287048091880490918904019670
S11304F0909389048093880485E001C080E0909102
S1130500850498B90895809186048111E2CFE7CFDC
S1130510809186048111C7CFCDCF823061F028F459
S11305208823D1F0813021F15DC0843049F0A8F1F5
S11305308530F1F057C080918C0481111DC018C022
S11305402091B7063091B8068091D0069091D106DB
S11305508217930780F521C010928C0410928B04AB
S113056010928A041092B8061092B70681E008959A
S11305701092860482E00895E0918B04F0E0EA563C
S1130580F94F808190E09093B8068093B70610925B
S1130590D1061092D00683E0089581E0809386040A
S11305A08091D0069091D10601969093D1068093C4
S11305B0D00684E008951092860480918B048230E2
S11305C018F010928B0403C08F5F80938B0480918A
S11305D08C04815080938C041092D1061092D00622
S11305E085E0089580E008956093C0037093C1038B
S11305F08093C2039093C3036093890670938A0621
S113060080938B0690938C0608958BE080938100F1
S11306108DE790E0909389008093880082E0809336
S11306206F0010928500109284008091C003909115
S1130630C103A091C203B091C30380938906909330
S11306408A06A0938B06B0938C068FB780688FBF01
S113065008951F920F920FB60F9211248F939F93B8
S1130660AF93BF938091890690918A06A0918B06DF
S1130670B0918C060197A109B109809389069093E2
S11306808A06A0938B06B0938C06892B8A2B8B2B1E
S113069099F481E080938D068091C0039091C10309
S11306A0A091C203B091C3038093890690938A06F4
S11306B0A0938B06B0938C06BF91AF919F918F91BD
S11306C00F900FBE0F901F901895CF93DF93519A00
S11306D0529A539A549A559A5A9A599A8FE493EC87
S11306E00197F1F700C000005A989FEB25E484E0DD
S11306F0915020408040E1F700C000005A9A599878
S113070081E21BDE83E119DE86E017DE82EC15DE72
S113071080E213DE89E011DE80E80FDE80E40DDE86
S1130720C8EFD1E061E080E0EADD2197D9F788E005
S113073004DE8CE002DEDF91CF91089580E8FDDDD8
S113074080E4FBDD1092870610928806EFE8F4E05F
S113075087E896E01192E817F907E1F70895262F44
S113076026952695269590E034E5239F800D911DCE
S11307701124442379F0FC01E157FB4F677081E0B9
S113078090E002C0880F991F6A95E2F79081892B47
S113079080830895FC01E157FB4F677081E090E08E
S11307A002C0880F991F6A95E2F78095908189238A
S11307B0808308955F926F927F928F929F92AF92FF
S11307C0BF92CF92DF92EF92FF920F931F93CF933A
S11307D0DF93562E262F30E04901880C991C880C93
S11307E0991C820E931E181419040CF05BC0890125
S11307F0000F111F000F111F000F111F021B130BFD
S1130800612CA82EB12CC50180975C01AA0CBB1CDD
S1130810AA0CBB1CA80EB91E0F2EF8E8CF2EF6E0CA
S1130820DF2EF02D0F2EF7E8EF2EF6E0FF2EF02D41
S11308302BC0FE01249130E0872D652D0E94B71551
S113084002C0359527958A95E2F720FF09C0F60185
S11308506081670DF701808141E0860D80DF08C06B
S1130860F6016081670DF701808140E0860D77DF36
S11308707394872D90E080179107DCF26394862DA2
S113088090E08815990574F410161106BCF7862DAE
S1130890652D0E94B715E501C80FD11DC252DF4F67
S11308A0712CC7CF8091870691E0980F852D880F12
S11308B0880F850D890F843518F4809387060EC040
S11308C010928706E8E8F6E0808191E0980F852D84
S11308D0880F880F880F8519890F80838091880677
S11308E0803320F01092870610928806DF91CF9112
S11308F01F910F91FF90EF90DF90CF90BF90AF903A
S11309009F908F907F906F905F9008951F93CF93E7
S1130910DF93EC018881882339F0162F2196612F0B
S113092049DF89918111FBCFDF91CF911F91089508
S11309300F931F93CF93DF9380E8FFDC80E4FDDC0B
S1130940CFE8D4E007E816E061E08991D8DCC0176D
S1130950D107D1F7DF91CF911F910F910895CF92D5
S1130960DF92EF92FF926B017C019B01AC016091DD
S113097074047091750480917604909177040E94B8
S11309800114882309F446C020E030E0A901C7011E
S1130990B6010E940114811104C085B5887085BD1B
S11309A003C085B5836085BD28E539E344E75FE38B
S11309B0C701B6010E94011488231CF48FEF87BD80
S11309C020C020E034E244EF56E4C701B6010E949F
S11309D05015181614F417BC14C020E030E040E0A1
S11309E053E4C701B6010E9454159B01AC0160E0B9
S11309F074E284EF9AE40E9405140E946D1461501D
S1130A0067BD16BCC0927404D0927504E09276045B
S1130A10F0927704FF90EF90DF90CF900895EF92DB
S1130A20FF920F931F93CF93C82F90E087309105C7
S1130A3008F01CC1FC01E25BFF4F0C94E5158091AA
S1130A40D602843009F04CC01092800410927F04C6
S1130A5010927E041092A5061092A406CAC080913A
S1130A60D6028230E9F1853009F444C0863051F46D
S1130A701092CF0610927D0410927C0420E080E056
S1130A8090E0C1C0893009F0FBC01092CF061092EB
S1130A907D0410927C0420E080E090E035C08091D9
S1130AA0D602823009F0F1C01BC08091D602843096
S1130AB009F0DEC01092800410927F0410927E042C
S1130AC01092A5061092A40694C08091D60282309A
S1130AD089F406C060E070E0CB0141DFC1E0DDC015
S1130AE0109278041092790410927A0410927B0484
S1130AF0C2E0D3C0109278041092790410927A0460
S1130B0010927B04C4E0C9C0FC01E05BFE4F80810D
S1130B1090E040917C0450917D048417950738F04F
S1130B202F5F2093CF0610927D0410927C04E091F5
S1130B30CF06F0E0EE0FFF1FEE0FFF1FE256FE4F51
S1130B4080819181A281B381809378049093790408
S1130B50A0937A04B0937B0480917C0490917D04EB
S1130B60019690937D0480937C04C6E096C0009126
S1130B70A4061091A5060330110548F5E0907F0402
S1130B80F12CC701880F991F880F991F9C012755C5
S1130B90394F7901B80180E090E00E949E149B01D6
S1130BA0AC01F70160817181828193810E949D1360
S1130BB0609378047093790480937A0490937B040F
S1130BC00F5F1F4F1093A5060093A40666C0909173
S1130BD07F04923018F010927F0403C09F5F9093BB
S1130BE07F048150809380041092A5061092A4067D
S1130BF054C0109278041092790410927A041092DE
S1130C007B04C3E04AC0FC01E050FF4F808190E0C8
S1130C1040917C0450917D048417950738F02F5F30
S1130C202093CF0610927D0410927C04E091CF06AD
S1130C30F0E0EE0FFF1FEE0FFF1FE05FFE4F80811D
S1130C409181A281B3818093780490937904A093D5
S1130C507A04B0937B0480917C0490917D04019686
S1130C6090937D0480937C04C5E017C0C0E015C058
S1130C702091CF06822F90E08F30910524F20DC091
S1130C8080918004811173CFB4CF2091CF06822F3D
S1130C9090E08D3491050CF437CF60917804709115
S1130CA0790480917A0490917B0459DE8C2FCF9142
S1130CB01F910F91FF90EF90089589E484BD8BE01C
S1130CC085BD60E070E0CB014ACE08952F923F923B
S1130CD04F925F926F927F928F929F92AF92BF9248
S1130CE0CF92DF92EF92FF920F931F93CF93DF93F4
S1130CF000D000D000D0CDB7DEB786E996E160E041
S1130D0070E00F2EF8EAAF2EF3E0BF2EF02D0F2E79
S1130D10F0EC8F2EF3E09F2EF02D0F2EF0E66F2EC9
S1130D20F3E07F2EF02D0F2EF0E34F2EF3E05F2E35
S1130D30F02D40E953E01C017A8369836AC1ED9187
S1130D40CE2ED12C89E0C816D10468F4F601EB5AF2
S1130D50FF4F0C94E51569817A81620F731F6B5202
S1130D60794F9CE011C069817A81620F731F6B52C5
S1130D70794F9CE037C111928150E9F791506C5A38
S1130D807F4F992309F431C1FB018CE0F4CFE8E7EC
S1130D90F3E0FC83EB8369817A81620F731F6B52EA
S1130DA0794F7F01F701C190D1907F018B018CE0D5
S1130DB0F6016D019E2F9170D8019D938D01F695DA
S1130DC0E7958150B9F7D6016C5A7F4F4E155F05F0
S1130DD049F70BC1E8E7F3E0FC83EB8369817A818F
S1130DE0620F731F6B52794F7F01F701C190D1904D
S1130DF07F018B0180E0F6016D019E2F9170D80177
S1130E009D938D01F695E7958F5F8C30B1F7D601F0
S1130E106C5A7F4F4E155F0541F7E7C0E8E1F3E0F8
S1130E20FC83EB8369817A81620F731F6B52794F64
S1130E307F01F701C190D1907F018B018CE0F60115
S1130E406D019E2F9170D8019D938D01F695E795C4
S1130E508150B9F7D6016C5A7F4F4E145F0449F79D
S1130E60C4C0E8E4F3E0FC83EB8369817A81620F18
S1130E70731F6B52794F7F01F701C190D1907F01AD
S1130E808B0180E0F6016D019E2F9170D8019D9336
S1130E908D01F695E7958F5F8C30B1F7D6016C5ACA
S1130EA07F4F6E147F0441F7A0C0E8EAF3E0FC83AF
S1130EB0EB8369817A81620F731F6B52794F7F01D3
S1130EC0F701C190D1907F018B018CE0F6016D0197
S1130ED09E2F9170D8019D938D01F695E7958150D1
S1130EE0B9F7D6016C5A7F4FE814F90449F77DC06D
S1130EF0E0E9F3E0FC83EB8369817A81620F731F7D
S1130F006B52794F7F01F701C190D1907F018B0122
S1130F1080E0F6016D019E2F9170D8019D938D01A3
S1130F20F695E7958F5F8C30B1F7D6016C5A7F4FF9
S1130F30AE14BF0441F759C0E0E6F3E0FC83EB8351
S1130F4069817A81620F731F6B52794F7F01F701B8
S1130F50C190D1907F018B0180E0F6016D019E2F3D
S1130F609170D8019D938D01F695E7958F5F8C3034
S1130F70B1F7D6016C5A7F4FE8E7F3E0EE15FF05B1
S1130F8031F733C080E393E09C838B8369817A815A
S1130F90620F731F6B52794F7C01F701C190D1909E
S1130FA07F018B018CE0BE83AD83F6019E2F91708F
S1130FB0D8019D938D01F695E7958150B9F7AD81E0
S1130FC0BE816C5A7F4FE8E4EE16E3E0FE0629F793
S1130FD00CC011928F5F8C30E1F791506C5A7F4FA7
S1130FE0992319F0FB0180E0F4CF245F3F4F2435AF
S1130FF0310509F0A4CE89819A8180519C4F9A834E
S1131000898397E0290E311CA981BA81A03DBB4098
S113101021F0D10120E030E092CE26960FB6F8946C
S1131020DEBF0FBECDBFDF91CF911F910F91FF9017
S1131030EF90DF90CF90BF90AF909F908F907F9074
S11310406F905F904F903F902F90089580919C06F1
S1131050811110C080918D0490918E04992354F4D1
S1131060E9E9F6E081E0838380818483818185835B
S11310701782168260919906663009F458C08091EF
S11310808D0490918E0490FF4FC080919A06262F74
S113109030E0482F50E0F90197E0899FE00DF11D01
S11310A01124EA56F94E8181811119C0CA01880FB1
S11310B0991F880F991F880F991F841B950B8A56B7
S11310C0994EFC01E20FF31F108221E0260F2093BA
S11310D09906FC01E20FF11D24E0208345C1833011
S11310E0E1F4CA01880F991F880F991F880F991F6F
S11310F0841B950B8A56994EFC01E20FF31F108254
S113110021E0260F20939906FC01E20FF11D24E053
S1131110208381E08093D40627C1853009F024C15F
S113112081E08093A30620C1662309F455C0809111
S11311308D0490918E0491FF4FC080919A06262FC2
S113114030E0482F50E0F90197E0899FE00DF11D50
S11311501124EB56F94E8081811119C0CA01880F00
S1131160991F880F991F880F991F841B950B8A5606
S1131170994EFC01E20FF31F10822FEF260F2093EC
S11311809906FC01E20FF11D24E02083EDC08330B9
S1131190E1F4CA01880F991F880F991F880F991FBE
S11311A0841B950B8A56994EFC01E20FF31F1082A3
S11311B02FEF260F20939906FC01E20FF11D24E086
S11311C0208381E08093D406CFC0853009F0CCC061
S11311D081E08093A306C8C080919A06882309F40D
S11311E064C020918D0430918E0433FF5BC0482F7E
S11311F050E0262F30E0BA0161507109FB01EE0F77
S1131200FF1FEE0FFF1FEE0FFF1FE61BF70BEA5643
S1131210F94EE20FF31F908191111CC0FA01EE0FF9
S1131220FF1FEE0FFF1FEE0FFF1FE41BF50BEA5627
S1131230F94EE20FF31F1082815080939A0697E0D3
S1131240899F200D311D1124F901EA56F94E84E0DD
S113125080838AC09330F9F4FA01EE0FFF1FEE0F7A
S1131260FF1FEE0FFF1FE41BF50BEA56F94EE20FCA
S1131270F31F1082815080939A0697E0899F200D76
S1131280311D1124F901EA56F94E84E0808381E08E
S11312908093D40669C0953009F066C081E08093DC
S11312A0A30662C0823009F45FC020918D0430919E
S11312B08E0432FF59C0482F50E0262F30E0BA0187
S11312C06F5F7F4FFB01EE0FFF1FEE0FFF1FEE0F4F
S11312D0FF1FE61BF70BEA56F94EE20FF31F90814E
S11312E091111CC0FA01EE0FFF1FEE0FFF1FEE0F4E
S11312F0FF1FE41BF50BEA56F94EE20FF31F1082B1
S11313008F5F80939A0697E0899F200D311D1124E9
S1131310F901EA56F94E84E0808326C09330F9F44B
S1131320FA01EE0FFF1FEE0FFF1FEE0FFF1FE41B6E
S1131330F50BEA56F94EE20FF31F10828F5F80938C
S11313409A0697E0899F200D311D1124F901EA5670
S1131350F94E84E0808381E08093D40605C0953003
S113136019F481E08093A306E9E9F6E08481908191
S1131370981304C021819581291781F090919C06CE
S1131380992361F0E0919E0697E0E99FF001112412
S1131390EA56F94EE80FF11D86E080830895CF9256
S11313A0DF92EF92FF92809195168823B9F0A82FCF
S11313B0B0E0AA0FBB1FA954B94F1196EC91119735
S11313C09C9127E0E29FF0011124EA56F94EE90FBF
S11313D0F11D1082815059F71092951680919F0645
S11313E09091A0068E31910558F420919C062223F9
S11313F009F492C201969093A00680939F068CC232
S113140080919C06882309F487C2E9E9F6E06581A6
S11314107481272F30E0462F50E0F90187E0689F60
S1131420E00DF11D1124EA56F94E908180918A0451
S1131430E82FF0E0EA56F94FAAE0A083823018F0D2
S113144010928A0403C08F5F80938A0480918C0475
S11314508F5F80938C0480917E04E82FF0E0EE0F80
S1131460FF1FEE0FFF1FE755F94F0F2EC12CD12C94
S1131470F8EFEF2EF1E4FF2EF02DC082D182E2824C
S1131480F382823018F010927E0403C08F5F809341
S11314907E04809180048F5F80938004943021F4D3
S11314A081E08093A30617C0CA01880F991F880F93
S11314B0991F880F991F841B950B8A56994EFC011E
S11314C0E20FF31F28E02083E9EBF6E070836183E9
S11314D081E08093951680919D06863009F469C059
S11314E0A0919E06E82FF0E0BF016F5F7F4F2A2F87
S11314F030E0FB0197E0A99FE00DF11D1124EA56AD
S1131500F94E9081923018F0953079F58AC1A9018D
S1131510440F551F440F551F440F551FFA01E21B7A
S1131520F30B9F012A56394EF901E60FF71F28E005
S1131530208320919516E22FF0E0EE0FFF1FE75471
S1131540F94F31E0380F3083A1832F5F2093951634
S1131550913061F520918F06309190062F5F3F4FB7
S11315603093900620938F0621C09230D1F4F90174
S1131570EE0FFF1FEE0FFF1FEE0FFF1FE21BF30B1B
S1131580EA56F94EE60FF71F93E0908320918F06F9
S1131590309190062B5F3F4F3093900620938F0637
S11315A005C0943019F491E09093A306882309F4BC
S11315B063C060919E06E82FF0E0AF0141505109ED
S11315C0262F30E0FA0197E0699FE00DF11D112408
S11315D0EA56F94E9081923018F0953061F540C189
S11315E0F901EE0FFF1FEE0FFF1FEE0FFF1FE21BAF
S11315F0F30BEA56F94EE40FF51F28E020832091FF
S11316009516E22FF0E0EE0FFF1FE754F94F3FEF7E
S1131610380F308361832F5F20939516913061F5E5
S113162020918F06309190062F5F3F4F30939006A4
S113163020938F0621C09230D1F4F901EE0FFF1FE1
S1131640EE0FFF1FEE0FFF1FE21BF30BEA56F94EDE
S1131650E40FF51F93E0908320918F06309190065C
S11316602B5F3F4F3093900620938F0605C0943034
S113167019F491E09093A30690919E06992309F49E
S113168068C0292F30E021503109682F70E0F9013A
S1131690EE0FFF1FEE0FFF1FEE0FFF1FE21BF30BFA
S11316A0EA56F94EE60FF71F4081423018F04530F4
S11316B061F5F5C0F901EE0FFF1FEE0FFF1FEE0FEE
S11316C0FF1FE21BF30BEA56F94EE60FF71F28E063
S11316D0208320919516E22FF0E0EE0FFF1FE754D0
S11316E0F94F80833FEF390F31832F5F2093951695
S11316F0413061F520918F06309190062F5F3F4F66
S11317003093900620938F0621C04230D1F4F90122
S1131710EE0FFF1FEE0FFF1FEE0FFF1FE21BF30B79
S1131720EA56F94EE60FF71F23E0208320918F0637
S1131730309190062B5F3F4F3093900620938F0695
S113174005C0443019F421E02093A306923009F433
S113175062C0292F30E02F5F3F4F682F70E0F901FE
S1131760EE0FFF1FEE0FFF1FEE0FFF1FE21BF30B29
S1131770EA56F94EE60FF71F4081423018F0453023
S113178051F5ACC0F901EE0FFF1FEE0FFF1FEE0F76
S1131790FF1FE21BF30BEA56F94EE60FF71F28E092
S11317A0208320919516E22FF0E0EE0FFF1FE754FF
S11317B0F94F80839F5F91832F5F2093951641306B
S11317C051F580918F069091900601969093900622
S11317D080938F0620C04230C9F4F901EE0FFF1F39
S11317E0EE0FFF1FEE0FFF1FE21BF30BEA56F94E3D
S11317F0E60FF71F83E0808380918F069091900617
S113180005969093900680938F0605C0443019F492
S113181081E08093A306E9E9F6E017821682138239
S11318207BC0F901EE0FFF1FEE0FFF1FEE0FFF1F2E
S1131830E21BF30BEA56F94EE60FF71F98E090838C
S113184090919516E92FF0E0EE0FFF1FE754F94F42
S113185021E0280F2083A1839F5F90939516A6CE45
S1131860F901EE0FFF1FEE0FFF1FEE0FFF1FE21B2C
S1131870F30BEA56F94EE40FF51F98E0908390912C
S11318809516E92FF0E0EE0FFF1FE754F94F2FEF05
S1131890280F208361839F5F90939516EDCEF90105
S11318A0EE0FFF1FEE0FFF1FEE0FFF1FE21BF30BE8
S11318B0EA56F94EE60FF71F28E02083209195168B
S11318C0E22FF0E0EE0FFF1FE754F94F80833FEF64
S11318D0390F31832F5F2093951638CFF901EE0F1E
S11318E0FF1FEE0FFF1FEE0FFF1FE21BF30BEA5665
S11318F0F94EE60FF71F28E0208320919516E22F7A
S1131900F0E0EE0FFF1FE754F94F80839F5F918350
S11319102F5F209395167FCFFF90EF90DF90CF90AD
S11319200895CF93DF9390E08A30910508F008C3BF
S1131930FC01E25AFF4F0C94E51580918D049091BF
S11319408E0494FF46C020918104309182048091DA
S1131950D7029091D8022817390750F53AC08091E0
S1131960D406882331F080918E06833008F4FDC0BC
S113197045C18091A306882309F4F0C18091AB1678
S11319808111AEC1C5C280918D0490918E0494FDE5
S1131990F0C0EBC080918D0490918E0494FD19C029
S11319A02DC180918D0490918E0494FD12C0B0C21B
S11319B029ED32E046E956E16EEE72E0B2C01092D3
S11319C0B6061092B506109282041092810481E04A
S11319D0BAC282E08093D602E091B506F091B606D1
S11319E0C2E9D6E09F01ADECBCEC0E94EE15AC015F
S11319F05695479556954795569547959A01220FC2
S1131A00331FCA01880F991F880F991F880F991FC8
S1131A10820F931F9F01281B390BC901805D8A83A4
S1131A209A010E94EE1596958795969587959695B9
S1131A3087959C01220F331F880F991F880F991FC8
S1131A40880F991F820F931F481B590B405D4983D0
S1131A509F013695279536952795ABE7B4E10E940B
S1131A60EE15AC01569547959A01ADECBCEC0E947D
S1131A70EE159695879596958795969587959C01ED
S1131A80220F331F880F991F880F991F880F991FE2
S1131A90820F931F481B590B405D488380918D042E
S1131AA090918E0484FF08C0BF01809183049091BB
S1131AB084040E94021617C085FF0BC08091830422
S1131AC0909184040E94FD159093B6068093B50608
S1131AD00AC095FF08C060E070E080918304909193
S1131AE084040E94021680918104909182042091C2
S1131AF0D7023091D8028217930708F023C20196C7
S1131B00909382048093810482E01DC291919D93FD
S1131B108150E1F7295F3F4F495F5F4F2617370731
S1131B2021F0DA01F90187E0F1CFE9E9F6E010826A
S1131B301182138284E08093D6021092D40681E04D
S1131B4080938E061092A3061092900610928F0630
S1131B5024E130E03093CE062093CD061092950612
S1131B608093AB16B3D883E0EEC186E08093D602AF
S1131B70EAC120918E062F5F20938E0685E1289F6F
S1131B80900111242C533D4F46E956E16BEA76E16E
S1131B900CC091919D938F5F8730D9F7295F3F4F98
S1131BA0495F5F4F4617570721F0DA01F90180E0DA
S1131BB0F0CFE9E9F6E010821182138220918F06BA
S1131BC0309190068091CD069091CE06820F931F9E
S1131BD09093900680938F0684E08093D6021092AF
S1131BE0D4061092A30684E190E09093CE068093ED
S1131BF0CD06109295066AD887E0A5C189E0809346
S1131C00D602E0918F06F0919006C2E9D6E09F01DA
S1131C10ADECBCECE3D7AC0156954795569547958A
S1131C20569547959A01220F331FCA01880F991FB1
S1131C30880F991F880F991F820F931F9F01281BDC
S1131C40390BC901805D8A839A01C8D79695879517
S1131C5096958795969587959C01220F331F880F3B
S1131C60991F880F991F880F991F820F931F481B74
S1131C70590B405D49839F013695279536952795E5
S1131C80ABE7B4E1ABD7AC01569547959A01ADECFF
S1131C90BCECA4D796958795969587959695879548
S1131CA09C01220F331F880F991F880F991F880FDB
S1131CB0991F820F931F481B590B405D48838091E5
S1131CC0B5069091B6068E179F0720F4F093B606DA
S1131CD0E093B506109282041092810489E033C126
S1131CE08091AB1681508093AB1680918E0690E064
S1131CF0019725E1289FA001299F500D11244752E7
S1131D005D4F26E936E16BEA76E10CC091919D9333
S1131D108F5F8730D9F7495F5F4F295F3F4F2617A1
S1131D20370721F0D901FA0180E0F0CFE9E9F6E0C4
S1131D3010821182138284E08093D6021092D4061A
S1131D401092A30684E190E09093CE068093CD0692
S1131D50109295060E94660688E0F5C077D91FDBCD
S1131D600E946606C0918F06D0919006E2E9F6E0E3
S1131D709E01ADECBCEC32D7AC0156954795569517
S1131D804795569547959A01220F331FCA01880F2C
S1131D90991F880F991F880F991F820F931F9E0107
S1131DA0281B390BC901805D82839A0117D7969548
S1131DB0879596958795969587959C01220F331F55
S1131DC0880F991F880F991F880F991F820F931FDF
S1131DD0481B590B405D41839E01369527953695E6
S1131DE02795ABE7B4E1FAD6AC01569547959A012D
S1131DF0ADECBCECF3D6969587959695879596951C
S1131E0087959C01220F331F880F991F880F991FF4
S1131E10880F991F820F931F481B590B405D408305
S1131E20809195068A3088F08091CD069091CE06F7
S1131E3001979093CE068093CD06892B19F481E007
S1131E408093A3061092950603C08F5F8093950636
S1131E50C091CD06D091CE06E6EAF6E09E01ADEC47
S1131E60BCECBCD6AC01569547955695479556950E
S1131E7047959A01220F331FCA01880F991F880FB3
S1131E80991F880F991F820F931F9E01281B390BDE
S1131E90C901805D82839A01A1D69695879596950E
S1131EA08795969587959C01220F331F880F991F5C
S1131EB0880F991F880F991F820F931F481B590B76
S1131EC0405D41839E013695279536952795ABE76E
S1131ED0B4E184D6AC01569547959A01ADECBCECBF
S1131EE07DD69695879596958795969587959C0129
S1131EF0220F331F880F991F880F991F880F991F6E
S1131F00820F931F481B590B405D408384E01BC024
S1131F1085E08093D60280918F069091900620915F
S1131F20B5063091B6062817390720F49093B60603
S1131F308093B506109282041092810485E003C058
S1131F4080E001C082E0DF91CF910895CF92DF92CB
S1131F50EF92FF920F931F93CF93DF930F2EF5ED24
S1131F60EF2EF6E0FF2EF02DD0E010C0F8014191E5
S1131F708F016D2F8C2F0E94AF03CF5FC435B1F753
S1131F80DF5FF4E5EF0EF11CD03319F08701C0E0F8
S1131F90EDCF0F2EF7E8EF2EF6E0FF2EF02DF70130
S1131FA0108208E816E0C8E2F801C08361E083E526
S1131FB00E94DA038AE0F7018083F801C0830F2EC0
S1131FC0F2E9CF2EF6E0DF2EF02D61E0F6018081FC
S1131FD00E94DA038FE0F7018083F801C08361E097
S1131FE0F60181810E94DA0384E1F7018083F8011C
S1131FF0C08361E0F60182810E94DA038EE1F70179
S11320008083F801C08361E08CE40E94DA0383E2F8
S1132010F7018083F801C08361E08AE30E94DA0358
S1132020F701C083F801C0838091AB1661E0805D45
S11320300E94DA0387E3F7018083F801C08361E03B
S113204084E50E94DA0381E4F7018083F801C08308
S11320500F2EF6EACF2EF6E0DF2EF02D61E0F6012A
S113206080810E94DA0386E4F7018083F801C0834B
S113207061E0F60181810E94DA038BE4F701808339
S1132080F801C08361E0F60182810E94DA03DF91E6
S1132090CF911F910F91FF90EF90DF90CF90089513
S11320A0CF92DF92FF920F931F93CF93DF9307E8B2
S11320B016E0F8011082C8E8D6E0188262E080E1F8
S11320C094E00E948604F801108284E1888361E030
S11320D083E294E00E948604F80110820F2EFEE150
S11320E0DF2EF02DD88261E088E194E00E9486041E
S11320F0F80110820F2EF8E2FF2EF02DF88261E035
S113210088E40E94DA0385E0F8018083F88261E0C4
S113211089E60E94DA038AE0F8018083F88261E0AC
S113212087E60E94DA038FE0F8018083F88261E099
S113213088E60E94DA0389E1F8018083F88261E08D
S113214083E50E94DA03F801D082F88261E083E635
S11321500E94DA0383E2F8018083F88261E08FE66B
S11321600E94DA03F801F082F88261E082E70E94BB
S1132170DA038DE2F8018083F88261E085E60E944B
S1132180DA0382E3F8018083F88261E08AE30E9443
S1132190DA038CE3F8018083F8820F2EF2E9CF2E64
S11321A0F6E0DF2EF02D61E0F60180810E94DA0373
S11321B081E4F8018083F88261E0F60181810E9464
S11321C0DA0386E4F8018083F88261E0F601828113
S11321D00E94DA03DF91CF911F910F91FF90DF905E
S11321E0CF900895FF920F931F93CF93DF9307E847
S11321F016E0F8011082C8E8D6E00F2EFAE0FF2EB0
S1132200F02DF88262E08AE094E00E94860486E47D
S1132210F8018083F88280918E0662E0805D0E94DE
S1132220DA03F80110828EE1888361E080E094E0B3
S11322300E948604F801108288E2888361E084EFBA
S113224093E00E948604DF91CF911F910F91FF903C
S11322500895CF92DF92EF92FF920F931F93CF9343
S1132260DF9307E816E0F8011082C8E8D6E0188288
S113227062E08BEE93E00E948604F80110821882DB
S113228062E087E40E94DA03F80110820F2EFEE177
S1132290FF2EF02DF88261E084EE93E00E94860424
S11322A00F2EF8E2EF2EF02DF801E082F8820F2EC7
S11322B0F2E9CF2EF6E0DF2EF02D61E0F601808109
S11322C00E94DA038DE2F8018083F88261E0F6016E
S11322D081810E94DA0382E3F8018083F88261E05D
S11322E0F60182810E94DA03F8011082E88261E03B
S11322F088ED93E00E948604DF91CF911F910F91A6
S1132300FF90EF90DF90CF900895CF92DF92EF92FD
S1132310FF920F931F93CF93DF9307E816E0F80122
S11323201082C8E8D6E0188262E080ED93E00E9453
S11323308604F80110820F2EFEE1FF2EF02DF882A4
S113234061E084EE93E00E9486040F2EF8E2EF2E03
S1132350F02DF801E082F8820F2EF2E9CF2EF6E09C
S1132360DF2EF02D61E0F60180810E94DA038DE218
S1132370F8018083F88261E0F60181810E94DA032A
S113238082E3F8018083F88261E0F60182810E9491
S1132390DA03F8011082E88261E088ED93E00E949C
S11323A08604DF91CF911F910F91FF90EF90DF9002
S11323B0CF90089590E08730910520F4FC01E8590E
S11323C0FF4F03C480E008958091D6028430D1F495
S11323D02EC08091D6028230A9F08530D1F08630AB
S11323E069F1893021F51CC08091D6028230C1F494
S11323F009C08091D602843009F519C08091D602B3
S1132400823039F40E949E034BDE0E94980482E0DD
S113241008950E949E031DDF0E94980484E008959D
S11324200E949E0372DF0E94980486E008950E9431
S11324309E038CDD0E94980483E008950E949E030D
S1132440D1DE0E94980485E0089581E00895CF9339
S1132450DF93CDB7DEB72C970FB6F894DEBF0FBE6F
S1132460CDBF83E081B98CEF82B98FEF87B918B8FB
S113247084B915B88AB91BB80E9465030E949E03EB
S11324800E9498040E945D060F2EFAE0EF2EF02DB4
S1132490F12C00E010E051E040E030E020E004C026
S11324A0E62EF72E082F192F652F742F832F922FC6
S11324B02E2D3F2D402F512F66D35E2D4F2D302FC3
S11324C0212F611571058105910551F75AE040E00E
S11324D030E020E004C0E62EF72E082F192F652FD8
S11324E0742F832F922F2E2D3F2D402F512F4BD3FE
S11324F05E2D4F2D302F212F61157105810591051A
S113250051F75AE040E030E020E004C0E62EF72E18
S1132510082F192F652F742F832F922F2E2D3F2DC7
S1132520402F512F30D35E2D4F2D302F212F611589
S113253071058105910551F754E140E030E020E058
S113254004C0E62EF72E082F192F652F742F832F22
S1132550922F2E2D3F2D402F512F15D35E2D4F2D11
S1132560302F212F611571058105910551F70F2E2B
S1132570FAE04F2E512C612C712CF02DC301B201C5
S11325802E2D3F2D402F512FFED249015A0161E0DB
S113259070E080E090E02E2D3F2D402F512FF3D29C
S11325A08CE0E4ECF3E0DE01119601900D928A9543
S11325B0E1F7E9E6F4E0DD24DA94D0822183328382
S11325C043835483258336834783508780EA91E08D
S11325D092878187EEE5F4E0D08241825282638261
S11325E0748285829682A782B0868AED91E1928771
S11325F081870F2EF3E52F2EF4E03F2EF02DD1012D
S1132600DC9268E270E080E090E0F1016183728323
S1132610838394832E2D3F2D402F512FB4D2D1018B
S113262015962D933D934D935C93189781E99CE007
S11326301A969C938E931997E8E4F4E0D082418231
S113264052826382748285829682A782B0868FE2E8
S113265092E092878187EDE3F4E0D0824182528256
S11326606382748285829682A782B0868DE892E026
S1132670928781870F2EF2E3AF2EF4E0BF2EF02D68
S1132680F501D08264E170E080E090E061837283C0
S1132690838394832E2D3F2D402F512F74D2F50127
S11326A025833683478350878FE095E0928781871F
S11326B06E2D7F2D802F912F0E94F4020E9405031E
S11326C06E01FDE0CF0ED11CCE0101967C01D70135
S11326D00D911D917D01F8014581568167817085B9
S11326E081819281A381B481481759076A077B07C6
S11326F069F480810184F285E02D90E00995D80188
S11327008C93F8011582168217821086F801858150
S11327109681A781B0850196A11DB11D85839683FD
S1132720A783B087EC14FD0491F680918D0688236D
S1132730E1F310928D06C8CF5058BB27AA270ED0BC
S113274075C166D130F06BD120F031F49F3F11F4A4
S11327501EF45BC10EF4E095E7FB51C1E92F77D17C
S113276080F3BA17620773078407950718F071F4AA
S11327709EF58FC10EF4E0950B2EBA2FA02D0B0100
S1132780B90190010C01CA01A0011124FF27591BB2
S113279099F0593F50F4503E68F11A16F040A22FB8
S11327A0232F342F4427585FF3CF46953795279529
S11327B0A795F0405395C9F77EF41F16BA0B620B28
S11327C0730B840BBAF09150A1F0FF0FBB1F661F6F
S11327D0771F881FC2F70EC0BA0F621F731F841FB2
S11327E048F4879577956795B795F7959E3F08F0D8
S11327F0B3CF9395880F08F09927EE0F9795879597
S11328000895D9D008F481E008950CD00FC107D100
S113281040F0FED030F021F45F3F19F0F0C05111C8
S113282039C1F3C014D198F39923C9F35523B1F3F3
S1132830951B550BBB27AA2762177307840738F02B
S11328409F5F5F4F220F331F441FAA1FA9F333D08A
S11328500E2E3AF0E0E830D091505040E695001C3E
S1132860CAF729D0FE2F27D0660F771F881FBB1FFA
S1132870261737074807AB07B0E809F0BB0B802DD4
S1132880BF01FF2793585F4F2AF09E3F510568F020
S1132890B6C000C15F3FECF3983EDCF386957795B4
S11328A06795B795F7959F5FC9F7880F911D969522
S11328B0879597F90895E1E0660F771F881FBB1F7E
S11328C0621773078407BA0720F0621B730B840B2B
S11328D0BA0BEE1F88F7E095089504D06894B111FF
S11328E0D9C00895BCD088F09F5790F0B92F99278C
S11328F0B751A0F0D1F0660F771F881F991F1AF007
S1132900BA95C9F712C0B13081F0C3D0B1E00895CF
S1132910C0C0672F782F8827B85F39F0B93FCCF350
S1132920869577956795B395D9F73EF490958095FC
S1132930709561957F4F8F4F9F4F0895E89409C01C
S113294097FB3EF490958095709561957F4F8F4FDE
S11329509F4F9923A9F0F92F96E9BB279395F695F4
S1132960879577956795B795F111F8CFFAF4BB0F72
S113297011F460FF1BC06F5F7F4F8F4F9F4F16C0D6
S1132980882311F096E911C0772321F09EE8872F60
S1132990762F05C0662371F096E8862F70E060E01C
S11329A02AF09A95660F771F881FDAF7880F969595
S11329B0879597F90895990F0008550FAA0BE0E839
S11329C0FEEF16161706E807F907C0F012161306ED
S11329D0E407F50798F0621B730B840B950B39F42D
S11329E00A2661F0232B242B252B21F408950A2693
S11329F009F4A140A6958FEF811D811D089597F9D3
S1132A009F6780E870E060E008959FEF80EC089590
S1132A1000240A94161617061806090608950024B9
S1132A200A9412161306140605060895092E039433
S1132A30000C11F4882352F0BB0F40F4BF2B11F4A7
S1132A4060FF04C06F5F7F4F8F4F9F4F089557FD06
S1132A509058440F551F59F05F3F71F04795880F08
S1132A6097FB991F61F09F3F79F08795089512169F
S1132A7013061406551FF2CF4695F1DF08C016164B
S1132A8017061806991FF1CF8695710561050894FC
S1132A900895E894BB2766277727CB0197F9089513
S1132AA08ADF08F48FEF08950BD0C0CFB1DF28F090
S1132AB0B6DF18F0952309F0A2CFA7CF1124EACFEF
S1132AC0C6DFA0F3959FD1F3950F50E0551F629F89
S1132AD0F001729FBB27F00DB11D639FAA27F00D73
S1132AE0B11DAA1F649F6627B00DA11D661F829F9A
S1132AF02227B00DA11D621F739FB00DA11D621F7F
S1132B00839FA00D611D221F749F3327A00D611D9B
S1132B10231F849F600D211D822F762F6A2F11247D
S1132B209F5750408AF0E1F088234AF0EE0FFF1FD0
S1132B30BB1F661F771F881F91505040A9F79E3F07
S1132B40510570F05CCFA6CF5F3FECF3983EDCF309
S1132B50869577956795B795F795E7959F5FC1F744
S1132B60FE2B880F911D9695879597F90895991BCB
S1132B7079E004C0991F961708F0961B881F7A9570
S1132B80C9F780950895A1E21A2EAA1BBB1BFD016B
S1132B900DC0AA1FBB1FEE1FFF1FA217B307E40738
S1132BA0F50720F0A21BB30BE40BF50B661F771F90
S1132BB0881F991F1A9469F7609570958095909570
S1132BC09B01AC01BD01CF010895EE0FFF1F00244E
S1132BD0001C0BBE0790F691E02D0994A29FB00152
S1132BE0B39FC001A39F700D811D1124911DB29F3D
S1132BF0700D811D1124911D0895A8E1B0E042E0FB
S1132C0050E005C012D0272F11C0DC01CB01FC011C
S1132C10F999FECF06C0F2BDE1BDF89A319600B431
S1132C200D9241505040B8F70895262FF999FECFE0
S1132C301FBA92BD81BD20BD0FB6F894FA9AF99AD5
S10D2C400FBE01960895F894FFCF2B
S1132C4A0C0C0C0C0C0C0C0C0C0C0C0C180C0C0CAA
S1132C5A00007743000077430000F74300007743FE
S1132C6A00009343000000000000B9430080CF43F2
S1132C7A0000DC43000000000000DC430000000008
S1132C8A0080CF43000000000000000000000000A4
S1132C9A0C0C0C0C0C0C0C0C0C0C0C0C0C0C0C0C66
S1132CAA0C0C0C0C0C0C0C0C0C0C0C0C0C0C0C0C56
S1132CBA0909090C0C0C0C0C0C0C0C0C0C0C0C0C4F
S1132CCA0C0C0C0C0C0C0C0C0C0C0C0C0C0C0C0939
S1132CDA09090C0C0C0C0C0C0C0C0C0C0C0C00D074
S1132CEA244500D024450000000000D024450000FB
S1132CFA000000D0024500D0244500000000000076
S1132D0A444500000000000000000000000000002C
S1132D1AC44400000000000000000000000000D0CD
S1132D2A024500000000000000000000C444000046
S1132D3A00000000000000E0A444000000000000BD
S1132D4A00000000DC44000000000000F74400001A
S1132D5A00000020E9440000DC44000000000000F8
S1132D6AC44400D024450000444500005C450000EA
S1132D7A000000A02E45000044450000000000D0D9
S1132D8A24450000000000D0024500D0124500008E
S1132D9AF744000000000000000000D002450000D3
S1132DAA0000000000000000C4440000000000000D
S1132DBA000000E0A444000000000000000000003D
S1132DCADC44000000000000F7440000000000207A
S1132DDAE9440000DC44000000000000C44400D0C0
S1132DEA24450000444500005C450000000000A0A2
S1132DFA2E45000044450000000000D02445000090
S1132E0A000000D0024500D012450000F74400003B
S1132E1A000000000000020A000400010000000093
S1132E2A0007000700070102000000000000040078
S1132E3A000001000000070007000701000100026A
S1132E4A0000000400010100000000070007000759
S1132E5A0000000005000002F80164026204620432
S1132E6A6108610861086D0B610861086108FF0F58
S1132E7AEC0312040204020402080108010801080E
S1132E8A030802046402B803AB0A5705FF030F02DE
S1132E9A17020F0207022F025702FF035705AB0A54
S1132EAAFC030606030C9D0B9D0B9909030C0E07E4
S1132EBAF8015801A801F000AE075F0FAF0FFA0A34
S1132ECAF707FA0AAF0F7F0FAF0FFA0AF707FA02EA
S1132EDA1C001600FA003A01F402EE07FE079E05EA
S1132EEA9E047C02F801F000FC03FE071C0D9909FC
S1132EFA99090C03FE07FC0390009000F6060F0FD5
S1132F0A0100000069045E04530448043D043204C9
S1132F1A594F552057494E005072657373205374A4
S1132F2A6172740053636F72653A0047616D654F4D
S1132F3A76657200507265737320537461727400FB
S1132F4A436F6D706C65746564004C6576656C00DE
S1132F5A422E204D617A650053454C3A20434C4534
S1132F6A415200523A53415645204C3A4C4F41443F
S1052F7A000051
S9030000FC
