:1000000056C1000073C1000071C100006FC1000043
:100010006DC100006BC1000069C1000067C1000034
:1000200065C1000063C1000061C100005FC1000044
:100030005DC1000077C2000059C1000057C1000037
:1000400055C1000053C1000051C100004FC1000064
:100050004DC100004BC1000049C1000047C1000074
:1000600045C1000043C1000041C100003FC1000084
:100070003DC100003BC1000039C1000037C1000094
:1000800035C1000033C1000031C10000FC0402058D
:10009000B104C104F704E704E1042B0647066A062D
:1000A0008E06D5061C07F806B1064207F8070208B7
:1000B000B607CB09C807EA07DC07CB09CB09E3077A
:1000C0000411E110C310C810DD10D810D3100000C7
:1000D00000000000005F00000007000700147F140C
:1000E0007F14242A7F2A122313086462364955227A
:1000F000500005030000001C2241000041221C00AA
:1001000014083E081408083E080800503000000893
:1001100008080808006060000020100804023E5132
:1001200049453E00427F40004261514946214145D8
:100130004B311814127F1027454545393C4A49492F
:100140003001710905033649494936064949291ED6
:100150000036360000005636000008142241001414
:1001600014141414004122140802015109063249E2
:1001700079413E7E1111117E7F494949363E414108
:1001800041227F4141221C7F494949417F09090998
:10019000013E4149497A7F0808087F00417F4100BC
:1001A0002040413F017F081422417F404040407F72
:1001B000020C027F7F0408107F3E4141413E7F09CF
:1001C0000909063E4151215E7F09192946464949E0
:1001D000493101017F01013F4040403F1F20402045
:1001E0001F3F4038403F6314081463070870080736
:1001F0006151494543007F4141000204081020003D
:1002000041417F000402010204404040404000019F
:1002100002040020545454787F48444438384444FD
:100220004420384444487F3854545418087E090107
:10023000020C5252523E7F0804047800447D400074
:100240002040443D007F1028440000417F40007C56
:10025000041804787C0804047838444444387C1436
:10026000141408081414187C7C0804040848545416
:100270005420043F4440203C4040207C1C2040202F
:100280001C3C4030403C44281028440C5050503C0A
:100290004464544C44000836410000007F000000D4
:1002A0004136080010080810080000000000112462
:1002B0001FBECFEFD0E4DEBFCDBF14E0A0E0B1E0C1
:1002C000ECE3F7E200E00BBF02C007900D92A2330F
:1002D000B107D9F726E1A2E3B4E001C01D92AA3A22
:1002E000B207E1F70E9406110C949C1389CE59982D
:1002F000662311F05B9A15C05B9813C0AC01022E07
:1003000002C0559547950A94E2F740FF02C05C9AF7
:1003100001C05C985D9A5D982150310978F7599A2F
:10032000089527E030E090E0E9CF60E0E0CF089565
:10033000813009F456C0E0F0843019F0853069F05E
:1003400046C08091880490918904059708F449C0BB
:1003500010928904109288043FC080918804909183
:1003600089040597C8F1109289041092880439C055
:100370001092850481E02CC08FEF8093850481E08A
:100380008093870404C010928504109287048091A2
:10039000880490918904019690938904809388043D
:1003A00084E016C01092850481E08093870404C025
:1003B000109285041092870480918804909189049A
:1003C0000196909389048093880485E001C080E0C1
:1003D0009091850498B90895809186048111E2CFA7
:1003E000E7CF809186048111C7CFCDCF823061F0F5
:1003F00028F48823D1F0813021F15DC0843049F0A8
:10040000A8F18530F1F057C080918C0481111DC096
:1004100018C02091B7063091B8068091D00690910F
:10042000D1068217930780F521C010928C04109298
:100430008B0410928A041092B8061092B70681E0DD
:1004400008951092860482E00895E0918B04F0E014
:10045000EA56F94F808190E09093B8068093B706F2
:100460001092D1061092D00683E0089581E0809327
:1004700086048091D0069091D10601969093D10682
:100480008093D00684E008951092860480918B04B6
:10049000823018F010928B0403C08F5F80938B041E
:1004A00080918C04815080938C041092D10610921C
:1004B000D00685E0089580E008956093C0037093AE
:1004C000C1038093C2039093C30360938906709322
:1004D0008A0680938B0690938C0608958BE0809318
:1004E00081008DE790E0909389008093880082E0FE
:1004F00080936F0010928500109284008091C00359
:100500009091C103A091C203B091C3038093890667
:1005100090938A06A0938B06B0938C068FB7806861
:100520008FBF08951F920F920FB60F9211248F93D1
:100530009F93AF93BF938091890690918A06A09173
:100540008B06B0918C060197A109B10980938906A9
:1005500090938A06A0938B06B0938C06892B8A2BE6
:100560008B2B99F481E080938D068091C00390914C
:10057000C103A091C203B091C303809389069093F5
:100580008A06A0938B06B0938C06BF91AF919F9182
:100590008F910F900FBE0F901F901895109A119A7F
:1005A0000895119A109A119820B130E02095309555
:1005B00022FB882780F990E040E150E01098880FF6
:1005C000991F20B130E02095309522FB662760F915
:1005D00070E0862B972B109A4150510979F70895B6
:1005E000823038F4DEDF90938E0480938D0481E0B6
:1005F000089580E00895CF93DF93519A529A539AC9
:10060000549A559A5A9A599A8FE493EC0197F1F7B4
:1006100000C000005A989FEB25E484E091502040F0
:100620008040E1F700C000005A9A599881E27DDECF
:1006300083E17BDE86E079DE82EC77DE80E275DEC8
:1006400089E073DE80E871DE80E46FDEC8EFD1E020
:1006500061E080E04CDE2197D9F788E066DE8CE02F
:1006600064DEDF91CF91089580E85FDE80E45DDE97
:100670001092870610928806EFE8F4E087E896E08B
:100680001192E817F907E1F70895262F2695269588
:10069000269590E034E5239F800D911D112444237D
:1006A00079F0FC01E157FB4F677081E090E002C0F8
:1006B000880F991F6A95E2F79081892B80830895AE
:1006C000FC01E157FB4F677081E090E002C0880FAA
:1006D000991F6A95E2F78095908189238083089518
:1006E0005F926F927F928F929F92AF92BF92CF92C2
:1006F000DF92EF92FF920F931F93CF93DF93562ECB
:10070000262F30E04901880C991C880C991C820E18
:10071000931E181419040CF05BC08901000F111FFF
:10072000000F111F000F111F021B130B612CA82EAD
:10073000B12CC50180975C01AA0CBB1CAA0CBB1C88
:10074000A80EB91E0F2EF8E8CF2EF6E0DF2EF02D02
:100750000F2EF7E8EF2EF6E0FF2EF02D2BC0FE0156
:10076000249130E0872D652D0E94521302C03595EB
:1007700027958A95E2F720FF09C0F6016081670D91
:10078000F701808141E0860D80DF08C0F6016081BD
:10079000670DF701808140E0860D77DF7394872D28
:1007A00090E080179107DCF26394862D90E0881525
:1007B000990574F410161106BCF7862D652D0E945C
:1007C0005213E501C80FD11DC253DF4F712CC7CFA3
:1007D0008091870691E0980F852D880F880F850DF1
:1007E000890F843518F4809387060EC0109287060F
:1007F000E8E8F6E0808191E0980F852D880F880F5A
:10080000880F8519890F808380918806803320F0B6
:100810001092870610928806DF91CF911F910F9159
:10082000FF90EF90DF90CF90BF90AF909F908F9010
:100830007F906F905F9008951F93CF93DF93EC01AB
:100840008881882339F0162F2196612F49DF8991FD
:100850008111FBCFDF91CF911F9108950F931F93CB
:10086000CF93DF9380E861DD80E45FDDCFE8D4E003
:1008700007E816E061E089913ADDC017D107D1F7AA
:10088000DF91CF911F910F910895CF92DF92EF9258
:10089000FF926B017C019B01AC016091740470912B
:1008A000750480917604909177040E94D911882371
:1008B00009F446C020E030E0A901C701B6010E945A
:1008C000D911811104C085B5887085BD03C085B577
:1008D000836085BD28E539E344E75FE3C701B601DE
:1008E0000E94D91188231CF48FEF87BD20C020E01F
:1008F00034E244EF56E4C701B6010E94EB12181629
:1009000014F417BC14C020E030E040E053E4C70109
:10091000B6010E94EF129B01AC0160E074E284EF2B
:100920009AE40E94DD110E944512615067BD16BC19
:10093000C0927404D0927504E0927604F092770429
:10094000FF90EF90DF90CF900895CF93C82F90E065
:100950008730910508F00EC1FC01EA5BFF4F0C9453
:100960005E138091D602843009F04CC0109280044E
:1009700010927F0410927E041092A5061092A40695
:10098000BCC08091D6028230E9F1853009F444C0C0
:10099000863051F41092CF0610927D0410927C04A0
:1009A00020E080E090E0B3C0893009F0EDC0109203
:1009B000CF0610927D0410927C0420E080E090E04D
:1009C00035C08091D602823009F0E3C01BC080910F
:1009D000D602843009F0D0C01092800410927F04B7
:1009E00010927E041092A5061092A40686C08091F3
:1009F000D602823089F406C060E070E0CB0145DFAA
:100A0000C1E0CFC0109278041092790410927A0459
:100A100010927B04C2E0C5C0109278041092790451
:100A200010927A0410927B04C4E0BBC0FC01E05B2E
:100A3000FE4F808190E040917C0450917D048417AA
:100A4000950738F02F5F2093CF0610927D04109207
:100A50007C04E091CF06F0E0EE0FFF1FEE0FFF1FCA
:100A6000E256FE4F80819181A281B3818093780408
:100A700090937904A0937A04B0937B0480917C04D2
:100A800090917D04019690937D0480937C04C6E050
:100A900088C08091A4069091A50683309105D8F472
:100AA000E0917F04F0E0EE0FFF1FEE0FFF1FE75510
:100AB000F94F408151816281738140937804509352
:100AC000790460937A0470937B0401969093A50651
:100AD0008093A40666C080917F04823018F0109243
:100AE0007F0403C08F5F80937F0421502093800494
:100AF0001092A5061092A40654C010927804109289
:100B0000790410927A0410927B04C3E04AC0FC017D
:100B1000E050FF4F808190E040917C0450917D0433
:100B20008417950738F02F5F2093CF0610927D042D
:100B300010927C04E091CF06F0E0EE0FFF1FEE0F65
:100B4000FF1FE05FFE4F80819181A281B38180937E
:100B5000780490937904A0937A04B0937B048091F5
:100B60007C0490917D04019690937D0480937C0495
:100B7000C5E017C0C0E015C02091CF06822F90E0DD
:100B80008F30910524F20DC020918004211181CF76
:100B9000B4CF2091CF06822F90E08D3491050CF4D4
:100BA00045CF609178047091790480917A04909196
:100BB0007B046BDE8C2FCF91089589E484BD8BE09C
:100BC00085BD60E070E0CB0160CE08952F923F922A
:100BD0004F925F926F927F928F929F92AF92BF924D
:100BE000CF92DF92EF92FF920F931F93CF93DF93F9
:100BF00000D000D000D0CDB7DEB784E996E160E048
:100C000070E00F2EF8EAAF2EF3E0BF2EF02D0F2E7E
:100C1000F0EC8F2EF3E09F2EF02D0F2EF0E66F2ECE
:100C2000F3E07F2EF02D0F2EF0E34F2EF3E05F2E3A
:100C3000F02D40E953E01C017A8369836AC1ED918C
:100C4000CE2ED12C89E0C816D10468F4F601E35BFE
:100C5000FF4F0C945E1369817A81620F731F6D528E
:100C6000794F9CE011C069817A81620F731F6D52C8
:100C7000794F9CE037C111928150E9F791506C5A3D
:100C80007F4F992309F431C1FB018CE0F4CFE8E7F1
:100C9000F3E0FC83EB8369817A81620F731F6D52ED
:100CA000794F7F01F701C190D1907F018B018CE0DA
:100CB000F6016D019E2F9170D8019D938D01F695DF
:100CC000E7958150B9F7D6016C5A7F4F4E155F05F5
:100CD00049F70BC1E8E7F3E0FC83EB8369817A8194
:100CE000620F731F6D52794F7F01F701C190D19050
:100CF0007F018B0180E0F6016D019E2F9170D8017C
:100D00009D938D01F695E7958F5F8C30B1F7D601F5
:100D10006C5A7F4F4E155F0541F7E7C0E8E1F3E0FD
:100D2000FC83EB8369817A81620F731F6D52794F67
:100D30007F01F701C190D1907F018B018CE0F6011A
:100D40006D019E2F9170D8019D938D01F695E795C9
:100D50008150B9F7D6016C5A7F4F4E145F0449F7A2
:100D6000C4C0E8E4F3E0FC83EB8369817A81620F1D
:100D7000731F6D52794F7F01F701C190D1907F01B0
:100D80008B0180E0F6016D019E2F9170D8019D933B
:100D90008D01F695E7958F5F8C30B1F7D6016C5ACF
:100DA0007F4F6E147F0441F7A0C0E8EAF3E0FC83B4
:100DB000EB8369817A81620F731F6D52794F7F01D6
:100DC000F701C190D1907F018B018CE0F6016D019C
:100DD0009E2F9170D8019D938D01F695E7958150D6
:100DE000B9F7D6016C5A7F4FE814F90449F77DC072
:100DF000E0E9F3E0FC83EB8369817A81620F731F82
:100E00006D52794F7F01F701C190D1907F018B0125
:100E100080E0F6016D019E2F9170D8019D938D01A8
:100E2000F695E7958F5F8C30B1F7D6016C5A7F4FFE
:100E3000AE14BF0441F759C0E0E6F3E0FC83EB8356
:100E400069817A81620F731F6D52794F7F01F701BB
:100E5000C190D1907F018B0180E0F6016D019E2F42
:100E60009170D8019D938D01F695E7958F5F8C3039
:100E7000B1F7D6016C5A7F4FE8E7F3E0EE15FF05B6
:100E800031F733C080E393E09C838B8369817A815F
:100E9000620F731F6D52794F7C01F701C190D190A1
:100EA0007F018B018CE0BE83AD83F6019E2F917094
:100EB000D8019D938D01F695E7958150B9F7AD81E5
:100EC000BE816C5A7F4FE8E4EE16E3E0FE0629F798
:100ED0000CC011928F5F8C30E1F791506C5A7F4FAC
:100EE000992319F0FB0180E0F4CF245F3F4F2435B4
:100EF000310509F0A4CE89819A8180519C4F9A8353
:100F0000898397E0290E311CA981BA81A03DBB409D
:100F100021F0D10120E030E092CE26960FB6F89471
:100F2000DEBF0FBECDBFDF91CF911F910F91FF901C
:100F3000EF90DF90CF90BF90AF909F908F907F9079
:100F40006F905F904F903F902F900895CF92DF92D7
:100F5000EF92FF92CF93DF9390E08A30910508F0F3
:100F6000CAC6FC01EA5AFF4F0C945E1380918D04AF
:100F700090918E0494FF46C02091810430918204A8
:100F80008091D7029091D8022817390750F53AC0BE
:100F90008091D206882331F080918E06833008F448
:100FA000FDC044C18091A306882309F4F4C1809157
:100FB000A9168111B3C187C680918D0490918E04CA
:100FC00094FDF0C0EBC080918D0490918E0494FD4F
:100FD00019C02CC180918D0490918E0494FD12C093
:100FE00072C629ED32E044E956E16EEE72E0B2C01D
:100FF0001092B6061092B5061092820410928104E7
:1010000081E07CC682E08093D602E091B506F09143
:10101000B606C2E9D6E09F01ADECBCEC0E946713B6
:10102000AC015695479556954795569547959A0123
:10103000220F331FCA01880F991F880F991F880F2D
:10104000991F820F931F9F01281B390BC901805DD7
:101050008A839A010E94671396958795969587953E
:10106000969587959C01220F331F880F991F880F33
:10107000991F880F991F820F931F481B590B405DC2
:1010800049839F013695279536952795ABE7B4E1BF
:101090000E946713AC01569547959A01ADECBCECE4
:1010A0000E9467139695879596958795969587954F
:1010B0009C01220F331F880F991F880F991F880FDB
:1010C000991F820F931F481B590B405D48838091E5
:1010D0008D0490918E0484FF08C0BF018091830429
:1010E000909184040E947B1317C085FF0BC08091F0
:1010F0008304909184040E9476139093B6068093A3
:10110000B5060AC095FF08C060E070E080918304D6
:10111000909184040E947B138091810490918204B9
:101120002091D7023091D8028217930708F0E5C5C5
:101130000196909382048093810482E0DFC59191AF
:101140009D938150E1F7295F3F4F495F5F4F26171D
:10115000370721F0DA01F90187E0F1CFE9E9F6E09C
:1011600010821182138284E08093D6021092D206FC
:1011700081E080938E061092A30610929006109242
:101180008F0624E130E03093CE062093CD061092F6
:1011900095068093A9161ADD83E0B0C586E080939A
:1011A000D602ACC520918E062F5F20938E0685E176
:1011B000289F900111242C533D4F44E956E169EAE0
:1011C00076E10BC091919D938150E1F7295F3F4FEC
:1011D000495F5F4F4617570721F0DA01F90187E0B1
:1011E000F1CFE9E9F6E010821182138220918F0697
:1011F000309190068091CD069091CE06820F931F7C
:101200009093900680938F0684E08093D60210928C
:10121000D2061092A30684E190E09093CE068093CC
:10122000CD0610929506D2DC87E068C589E08093F0
:10123000D602E0918F06F0919006C2E9D6E09F01B8
:10124000ADECBCEC0E946713AC01569547955695E2
:101250004795569547959A01220F331FCA01880F6B
:10126000991F880F991F880F991F820F931FDF0105
:10127000A81BB90BCD01805D8A839A01ADECBCEC53
:101280000E9467139695879596958795969587956D
:101290009C01220F331F880F991F880F991F880FF9
:1012A000991F820F931F481B590B405D49839F0173
:1012B0003695279536952795ABE7B4E10E946713DD
:1012C000AC01569547959A01ADECBCEC0E946713B2
:1012D0009695879596958795969587959C01220F6B
:1012E000331F880F991F880F991F880F991F820F2E
:1012F000931F481B590B405D48838091B506909120
:10130000B6068E179F0720F4F093B606E093B50655
:10131000109282041092810489E0F0C48091A91691
:1013200081508093A91680918E0690E0019725E167
:10133000289FA001299F500D112447525D4F24E999
:1013400036E169EA76E10CC091919D938F5F873019
:10135000D9F7495F5F4F295F3F4F2617370721F0C5
:10136000D901FA0180E0F0CFE9E9F6E010821182BC
:10137000138284E08093D6021092D2061092A306C4
:1013800084E190E09093CE068093CD06109295066E
:101390001DDC88E0B3C480919C06811110C080914F
:1013A0008D0490918E04992354F4E9E9F6E081E0EC
:1013B00083838081848381818583178216826091F3
:1013C0009906663009F452C080918D0490918E0484
:1013D00090FF49C080919A06262F30E0482F50E0B8
:1013E000F901B7E08B9FE00DF11D1124EC56F94E89
:1013F0008181811119C0CA01880F991F880F991F17
:10140000880F991F841B950B8C56994EFC01E20F97
:10141000F31F108221E0260F20939906FC01E20FB2
:10142000F11D24E020832DC1833009F02AC1CA01B7
:10143000880F991F880F991F880F991F841B950B80
:101440008C56994EFC01E20FF31F108221E0260F0B
:1014500020939906FC01E20FF11D24E0208381E036
:101460008093D2060EC1662309F44FC080918D048B
:1014700090918E0491FF49C080919A06462F50E0CA
:10148000282F30E0FA0197E0899FE00DF11D11242B
:10149000ED56F94E8081811119C0C901880F991F3D
:1014A000880F991F880F991F821B930B8C56994E9A
:1014B000FC01E40FF51F10822FEF260F20939906F1
:1014C000FC01E20FF11D24E02083DBC0833009F032
:1014D000D8C0C901880F991F880F991F880F991FBD
:1014E000821B930B8C56994EFC01E40FF51F108262
:1014F0002FEF260F20939906FC01E20FF11D24E047
:10150000208381E08093D206BCC080919A06882314
:1015100009F45EC020918D0430918E0433FF55C0D4
:10152000A82FB0E0262F30E0AD0141505109FA015B
:10153000EE0FFF1FEE0FFF1FEE0FFF1FE41BF50B5B
:10154000EC56F94EE20FF31F908191111CC0FD0182
:10155000EE0FFF1FEE0FFF1FEE0FFF1FEA1BFB0B2F
:10156000EC56F94EE20FF31F1082815080939A06D9
:10157000A7E08A9F200D311D1124F901EC56F94E88
:1015800084E080837EC0933009F07BC0FD01EE0FC4
:10159000FF1FEE0FFF1FEE0FFF1FEA1BFB0BEC56AA
:1015A000F94EE20FF31F1082815080939A06B7E044
:1015B0008B9F200D311D1124F901EC56F94E84E06A
:1015C000808381E08093D2065CC0823009F459C0E8
:1015D00020918D0430918E0432FF53C0A82FB0E0CB
:1015E000262F30E0AD014F5F5F4FFA01EE0FFF1F76
:1015F000EE0FFF1FEE0FFF1FE41BF50BEC56F94E2D
:10160000E20FF31F908191111CC0FD01EE0FFF1F2F
:10161000EE0FFF1FEE0FFF1FEA1BFB0BEC56F94E00
:10162000E20FF31F10828F5F80939A0697E0899FE5
:10163000200D311D1124F901EC56F94E84E0808310
:1016400020C09330F1F4FD01EE0FFF1FEE0FFF1FDE
:10165000EE0FFF1FEA1BFB0BEC56F94EE20FF31FD8
:1016600010828F5F80939A06A7E08A9F200D311D1C
:101670001124F901EC56F94E84E0808381E08093D7
:10168000D206E9E9F6E024818081821304C09181C9
:101690008581981781F080919C06882361F0E09104
:1016A0009E06B7E0EB9FF0011124EC56F94EE20FD5
:1016B000F11D86E08083809193168823B9F0A82FCE
:1016C000B0E0AA0FBB1FA954B94F1196EC91119726
:1016D0009C9137E0E39FF0011124EC56F94EE90F9D
:1016E000F11D1082815059F71092931680919F0638
:1016F0009091A0068E31910558F420919C062223EA
:1017000009F408C201969093A00680939F0602C236
:1017100080919C06882309F4FDC130919E06422FDA
:1017200050E0632F70E0FA0187E0389FE00DF11D73
:101730001124EC56F94E908180918A04E82FF0E054
:10174000EA56F94FAAE0A083823018F010928A047A
:1017500003C08F5F80938A0480918C048F5F809395
:101760008C0480917E04E82FF0E0EE0FFF1FEE0F57
:10177000FF1FE755F94F0F2EC12CD12CF8EFEF2E9C
:10178000F1E4FF2EF02DC082D182E282F38282301A
:1017900018F010927E0403C08F5F80937E048091C6
:1017A00080048F5F80938004943021F481E08093E3
:1017B000A30617C0CB01880F991F880F991F880FA8
:1017C000991F861B970B8C56994EFC01E40FF51F51
:1017D00048E04083E9EBF6E02083318381E08093A9
:1017E000931680919D06863009F466C040919E064E
:1017F000282F30E02F5F3F4F642F70E0F90197E012
:10180000499FE00DF11D1124EC56F94E9081923064
:1018100070F5FB01EE0FFF1FEE0FFF1FEE0FFF1F16
:10182000DF01A61BB70BBD016C56794EFB01E20F21
:10183000F31F58E0508320919316E22FF0E0EE0F53
:10184000FF1FE754F94F31E0380F308341832F5F9A
:1018500020939316913069F520918F063091900670
:101860002F5F3F4F3093900620938F0622C0923017
:10187000D9F4AB01440F551F440F551F440F551F9A
:10188000461B570B4C56594EFA01E20FF31F93E0DB
:10189000908320918F06309190062B5F3F4F3093BD
:1018A000900620938F0605C0943019F491E0909330
:1018B000A306882309F460C020919E06E82FF0E07B
:1018C000AF0141505109622F70E0FA01B7E02B9F40
:1018D000E00DF11D1124EC56F94E9081923058F52F
:1018E000FB01EE0FFF1FEE0FFF1FEE0FFF1FE61BAA
:1018F000F70BEC56F94EE40FF51F38E030833091CA
:101900009316E32FF0E0EE0FFF1FE754F94F4FEF70
:10191000480F408321833F5F30939316913061F5E8
:1019200020918F06309190062F5F3F4F30939006A5
:1019300020938F0621C09230D1F4FB01EE0FFF1FE0
:10194000EE0FFF1FEE0FFF1FE61BF70BEC56F94ED5
:10195000E40FF51F93E0908320918F06309190065D
:101960002B5F3F4F3093900620938F0605C0943035
:1019700019F491E09093A30690919E06992309F49F
:1019800065C0292F30E021503109682F70E0F9013E
:10199000EE0FFF1FEE0FFF1FEE0FFF1FE21BF30BFB
:1019A000EC56F94EE60FF71F4081423058F5F90129
:1019B000EE0FFF1FEE0FFF1FEE0FFF1FE21BF30BDB
:1019C000EC56F94EE60FF71F28E02083209193167E
:1019D000E22FF0E0EE0FFF1FE754F94F80833FEF57
:1019E000390F31832F5F20939316413061F5209199
:1019F0008F06309190062F5F3F4F309390062093D3
:101A00008F0621C04230D1F4F901EE0FFF1FEE0F17
:101A1000FF1FEE0FFF1FE21BF30BEC56F94EE60F14
:101A2000F71F23E0208320918F06309190062B5FD3
:101A30003F4F3093900620938F0605C0443019F431
:101A400021E02093A306923009F45FC0292F30E0F3
:101A50002F5F3F4F682F70E0F901EE0FFF1FEE0F71
:101A6000FF1FEE0FFF1FE21BF30BEC56F94EE60FC4
:101A7000F71F4081423048F5F901EE0FFF1FEE0FCE
:101A8000FF1FEE0FFF1FE21BF30BEC56F94EE60FA4
:101A9000F71F28E0208320919316E22FF0E0EE0F4D
:101AA000FF1FE754F94F80839F5F91832F5F20933F
:101AB0009316413051F580918F06909190060196D2
:101AC0009093900680938F0620C04230C9F4F901AC
:101AD000EE0FFF1FEE0FFF1FEE0FFF1FE21BF30BBA
:101AE000EC56F94EE60FF71F83E0808380918F0656
:101AF0009091900605969093900680938F0605C06E
:101B0000443019F481E08093A306E9E9F6E01782F6
:101B1000168213825BD8C0918F06D0919006E2E9BD
:101B2000F6E09E01ADECBCECD2D5AC0156954795E4
:101B300056954795569547959A01220F331FCA012E
:101B4000880F991F880F991F880F991F820F931F65
:101B50009E01281B390BC901805D82839A01B7D58C
:101B60009695879596958795969587959C01220FD2
:101B7000331F880F991F880F991F880F991F820F95
:101B8000931F481B590B405D41839E013695279555
:101B900036952795ABE7B4E19AD5AC0156954795B4
:101BA0009A01ADECBCEC93D5969587959695879563
:101BB000969587959C01220F331F880F991F880FD8
:101BC000991F880F991F820F931F481B590B405D67
:101BD0004083809195068A3088F08091CD0690915F
:101BE000CE0601979093CE068093CD06892B19F4EB
:101BF00081E08093A3061092950603C08F5F8093C7
:101C00009506C091CD06D091CE06E6EAF6E09E019B
:101C1000ADECBCEC5CD5AC01569547955695479517
:101C2000569547959A01220F331FCA01880F991FB5
:101C3000880F991F880F991F820F931FDE01A81B21
:101C4000B90BCD01805D82839A01ADECBCEC3FD530
:101C50009695879596958795969587959C01220FE1
:101C6000331F880F991F880F991F880F991F820FA4
:101C7000931F481B590B405D41839E013695279564
:101C800036952795ABE7B4E122D5AC01569547953B
:101C90009A01ADECBCEC1BD59695879596958795EA
:101CA000969587959C01220F331F880F991F880FE7
:101CB000991F880F991F820F931F481B590B405D76
:101CC000408384E01BC085E08093D60280918F061C
:101CD000909190062091B5063091B60628173907E5
:101CE00020F49093B6068093B50610928204109269
:101CF000810485E003C080E001C082E0DF91CF91E4
:101D0000FF90EF90DF90CF900895CF92DF92EF9207
:101D1000FF920F931F93CF93DF930F2EF3EDEF2ED0
:101D2000F6E0FF2EF02DD0E010C0F80141918F01B8
:101D30006D2F8C2F0E944503CF5FC435B1F7DF5F55
:101D4000F4E5EF0EF11CD03319F08701C0E0EDCFC0
:101D50000F2EF7E8EF2EF6E0FF2EF02DF7011082A0
:101D600008E816E0C8E2F801C08361E083E50E945C
:101D700070038AE0F7018083F801C0830F2EF2E937
:101D8000CF2EF6E0DF2EF02D61E0F60180810E947B
:101D900070038FE0F7018083F801C08361E0F601F2
:101DA00081810E94700384E1F7018083F801C08380
:101DB00061E0F60182810E9470038EE1F701808369
:101DC000F801C08361E08CE40E94700383E2F701B4
:101DD0008083F801C08361E08AE30E947003F70109
:101DE000C083F801C0838091A91661E0805D0E94E4
:101DF000700387E3F7018083F801C08361E084E525
:101E00000E94700381E4F7018083F801C0830F2EE4
:101E1000F6EACF2EF6E0DF2EF02D61E0F6018081AC
:101E20000E94700386E4F7018083F801C08361E0BB
:101E3000F60181810E9470038BE4F7018083F80131
:101E4000C08361E0F60182810E947003DF91CF912F
:101E50001F910F91FF90EF90DF90CF900895CF9258
:101E6000DF92FF920F931F93CF93DF9307E816E063
:101E7000F8011082C8E8D6E0188262E080E194E0C0
:101E80000E941C04F801108284E1888361E083E2EF
:101E900094E00E941C04F80110820F2EFEE1DF2E58
:101EA000F02DD88261E088E194E00E941C04F801E2
:101EB00010820F2EF8E2FF2EF02DF88261E088E408
:101EC0000E94700385E0F8018083F88261E089E672
:101ED0000E9470038AE0F8018083F88261E087E65F
:101EE0000E9470038FE0F8018083F88261E088E649
:101EF0000E94700389E1F8018083F88261E083E544
:101F00000E947003F801D082F88261E083E60E94AB
:101F1000700383E2F8018083F88261E08FE60E941B
:101F20007003F801F082F88261E082E70E9470039A
:101F30008DE2F8018083F88261E085E60E947003FB
:101F400082E3F8018083F88261E08AE30E947003F3
:101F50008CE3F8018083F8820F2EF2E9CF2EF6E0B1
:101F6000DF2EF02D61E0F60180810E94700381E494
:101F7000F8018083F88261E0F60181810E9470039C
:101F800086E4F8018083F88261E0F60182810E9494
:101F90007003DF91CF911F910F91FF90DF90CF9051
:101FA0000895FF920F931F93CF93DF9307E816E0F6
:101FB000F8011082C8E8D6E00F2EFAE0FF2EF02DCF
:101FC000F88262E08AE094E00E941C0486E4F80152
:101FD0008083F88280918E0662E0805D0E947003AB
:101FE000F80110828EE1888361E080E094E00E9435
:101FF0001C04F801108288E2888361E084EF93E09A
:102000000E941C04DF91CF911F910F91FF900895C2
:10201000CF92DF92EF92FF920F931F93CF93DF93B4
:1020200007E816E0F8011082C8E8D6E0188262E0FE
:102030008BEE93E00E941C04F8011082188262E08B
:1020400087E40E947003F80110820F2EFEE1FF2E3C
:10205000F02DF88261E084EE93E00E941C040F2EC4
:10206000F8E2EF2EF02DF801E082F8820F2EF2E96F
:10207000CF2EF6E0DF2EF02D61E0F60180810E9488
:1020800070038DE2F8018083F88261E0F6018181BE
:102090000E94700382E3F8018083F88261E0F60118
:1020A00082810E947003F8011082E88261E088ED6D
:1020B00093E00E941C04DF91CF911F910F91FF903C
:1020C000EF90DF90CF900895CF92DF92EF92FF9242
:1020D0000F931F93CF93DF9307E816E0F801108268
:1020E000C8E8D6E0188262E080ED93E00E941C040C
:1020F000F80110820F2EFEE1FF2EF02DF88261E034
:1021000084EE93E00E941C040F2EF8E2EF2EF02DD7
:10211000F801E082F8820F2EF2E9CF2EF6E0DF2EF2
:10212000F02D61E0F60180810E9470038DE2F801DC
:102130008083F88261E0F60181810E94700382E36E
:10214000F8018083F88261E0F60182810E947003C9
:10215000F8011082E88261E088ED93E00E941C049F
:10216000DF91CF911F910F91FF90EF90DF90CF9073
:10217000089590E08730910520F4FC01E05AFF4F6C
:102180009DC280E008958091D6028430D1F42EC0A3
:102190008091D6028230A9F08530D1F0863069F185
:1021A000893021F51CC08091D6028230C1F409C06B
:1021B0008091D602843009F519C08091D602823010
:1021C00039F40E9434034BDE0E942E0482E008950D
:1021D0000E9434031DDF0E942E0484E008950E94B3
:1021E000340372DF0E942E0486E008950E943403B7
:1021F0008CDD0E942E0483E008950E943403D1DE1A
:102200000E942E0485E0089581E00895CF93DF9326
:10221000CDB7DEB72C970FB6F894DEBF0FBECDBF9B
:1022200083E081B98CEF82B91FEF17B918B814B9E0
:1022300015B81AB91BB80E94FB020E9434030E9411
:102240002E040E94CE020E94DD058CE0E4ECF3E057
:10225000DE01119601900D928A95E1F7E9E6F4E02E
:10226000108381E090E0A0E0B0E081839283A383BB
:10227000B48385839683A783B08720EF32E03287CB
:102280002187EEE5F4E010834AE050E060E070E082
:10229000418352836383748385839683A783B08746
:1022A00029EB30E132872187E3E5F4E010834183B5
:1022B00052836383748385839683A783B08726EADA
:1022C00037E032872187E8E4F4E0108341835283CA
:1022D0006383748385839683A783B08728E931E07D
:1022E00032872187EDE3F4E01083418352836383D7
:1022F000748385839683A783B08726EF31E0328786
:102300002187E2E3F4E01083418352836383748383
:1023100085839683A783B08785EA94E09287818737
:102320006AE070E080E090E00E945D020E946E0230
:102330006E018DE0C80ED11CDE0111967D01F70102
:10234000019111917F01D80115964D915D916D918B
:102350007C91189711968D919D910D90BC91A02D17
:10236000481759076A077B0771F4F80180810184D7
:10237000F285E02D90E00995D8018C93F801158243
:10238000168217821086F80185819681A781B08513
:102390000196A11DB11D85839683A783B087CE14B6
:1023A000DF0469F680918D068823E1F310928D0693
:1023B000C3CF9CD008F481E008950CD0D2C0CAD01D
:1023C00040F0C1D030F021F45F3F19F0B3C051119B
:1023D000FCC0B6C0D7D098F39923C9F35523B1F305
:1023E000951B550BBB27AA2762177307840738F084
:1023F0009F5F5F4F220F331F441FAA1FA9F333D0E3
:102400000E2E3AF0E0E830D091505040E695001C96
:10241000CAF729D0FE2F27D0660F771F881FBB1F52
:10242000261737074807AB07B0E809F0BB0B802D2C
:10243000BF01FF2793585F4F2AF09E3F510568F078
:1024400079C0C3C05F3FECF3983EDCF38695779587
:102450006795B795F7959F5FC9F7880F911D96957A
:10246000879597F90895E1E0660F771F881FBB1FD6
:10247000621773078407BA0720F0621B730B840B83
:10248000BA0BEE1F88F7E095089504D06894B11157
:102490009CC008957FD088F09F5790F0B92F99275E
:1024A000B751A0F0D1F0660F771F881F991F1AF05F
:1024B000BA95C9F712C0B13081F086D0B1E0089565
:1024C00083C0672F782F8827B85F39F0B93FCCF3E6
:1024D000869577956795B395D9F73EF49095809555
:1024E000709561957F4F8F4F9F4F0895990F00080A
:1024F000550FAA0BE0E8FEEF16161706E807F907D6
:10250000C0F012161306E407F50798F0621B730B70
:10251000840B950B39F40A2661F0232B242B252BF1
:1025200021F408950A2609F4A140A6958FEF811D94
:10253000811D089597F99F6780E870E060E0089535
:102540009FEF80EC089500240A94161617061806CB
:102550000906089500240A941216130614060506A7
:102560000895092E0394000C11F4882352F0BB0F38
:1025700040F4BF2B11F460FF04C06F5F7F4F8F4F9B
:102580009F4F089557FD9058440F551F59F05F3FD6
:1025900071F04795880F97FB991F61F09F3F79F085
:1025A00087950895121613061406551FF2CF469507
:1025B000F1DF08C0161617061806991FF1CF869589
:1025C0007105610508940895E894BB27662777276D
:1025D000CB0197F908958ADF08F48FEF08950BD0A7
:1025E000C0CFB1DF28F0B6DF18F0952309F0A2CFF5
:1025F000A7CF1124EACFC6DFA0F3959FD1F3950FA3
:1026000050E0551F629FF001729FBB27F00DB11D76
:10261000639FAA27F00DB11DAA1F649F6627B00D06
:10262000A11D661F829F2227B00DA11D621F739FEF
:10263000B00DA11D621F839FA00D611D221F749FFD
:102640003327A00D611D231F849F600D211D822F44
:10265000762F6A2F11249F5750408AF0E1F088238B
:102660004AF0EE0FFF1FBB1F661F771F881F915098
:102670005040A9F79E3F510570F05CCFA6CF5F3F59
:10268000ECF3983EDCF3869577956795B795F795CB
:10269000E7959F5FC1F7FE2B880F911D9695879553
:1026A00097F90895991B79E004C0991F961708F0CF
:1026B000961B881F7A95C9F780950895EE0FFF1F26
:1026C0000024001C0BBE0790F691E02D0994A29FF8
:1026D000B001B39FC001A39F700D811D1124911DF6
:1026E000B29F700D811D1124911D0895A8E1B0E0E5
:1026F00042E050E005C012D0272F11C0DC01CB0111
:10270000FC01F999FECF06C0F2BDE1BDF89A319601
:1027100000B40D9241505040B8F70895262FF99912
:10272000FECF1FBA92BD81BD20BD0FB6F894FA9AB4
:0C273000F99A0FBE01960895F894FFCFAF
:10273C000C0C0C0C0C0C0C0C0C0C0C0C180C0C0CC1
:10274C0000007743000077430000F7430000774315
:10275C0000009343000000000000B9430080CF4309
:10276C000000DC43000000000000DC43000000001F
:10277C000080CF43000000000000000000000000BB
:10278C000C0C0C0C0C0C0C0C0C0C0C0C0C0C0C0C7D
:10279C000C0C0C0C0C0C0C0C0C0C0C0C0C0C0C0C6D
:1027AC000909090C0C0C0C0C0C0C0C0C0C0C0C0C66
:1027BC000C0C0C0C0C0C0C0C0C0C0C0C0C0C0C0950
:1027CC0009090C0C0C0C0C0C0C0C0C0C0C0C00D08B
:1027DC00244500D024450000000000D02445000012
:1027EC00000000D0024500D024450000000000008D
:1027FC004445000000000000000000000000000044
:10280C00C44400000000000000000000000000D0E4
:10281C00024500000000000000000000C44400005D
:10282C0000000000000000E0A444000000000000D4
:10283C0000000000DC44000000000000F744000031
:10284C0000000020E9440000DC440000000000000F
:10285C00C44400D024450000444500005C45000001
:10286C00000000A02E45000044450000000000D0F0
:10287C0024450000000000D0024500D012450000A5
:10288C00F744000000000000000000D002450000EA
:10289C000000000000000000C44400000000000024
:1028AC00000000E0A4440000000000000000000054
:1028BC00DC44000000000000F74400000000002091
:1028CC00E9440000DC44000000000000C44400D0D7
:1028DC0024450000444500005C450000000000A0B9
:1028EC002E45000044450000000000D024450000A7
:1028FC00000000D0024500D012450000F744000053
:10290C00000000000000020A0004000100000000AA
:10291C00000700070007010200000000000004008F
:10292C000000000000000700070007000000000284
:10293C000000000400000000000000070007000772
:10294C000000000000000002F8016402620462044E
:10295C006108610861086D0B610861086108FF0F6F
:10296C00EC03120402040204020801080108010825
:10297C00030802046402B803AB0A5705FF030F02F5
:10298C0017020F0207022F025702FF035705AB0A6B
:10299C00FC030606030C9D0B9D0B9909030C0E07FB
:1029AC00F8015801A801F000AE075F0FAF0FFA0A4B
:1029BC00F707FA0AAF0F7F0FAF0FFA0AF707FA0201
:1029CC001C001600FA003A01F402EE07FE079E0501
:1029DC009E047C02F801F000FC03FE071C0D990913
:1029EC0099090C03FE07FC0390009000F6060F0FEC
:1029FC000100000069045E04530448043D043204E1
:102A0C00594F552057494E005072657373205374BB
:102A1C006172740053636F72653A0047616D654F64
:102A2C007665720050726573732053746172740012
:102A3C00436F6D706C65746564004C6576656C00F5
:102A4C00422E204D617A650053454C3A20434C454B
:102A5C00415200523A53415645204C3A4C4F414456
:022A6C00000068
:00000001FF
