S01600006A696D3031315F70726F6A6563742E73726563E6
S11300004FC100006CC100006AC1000068C100005B
S113001066C1000064C1000062C1000060C100004C
S11300205EC100005CC100005AC1000058C100005C
S113003056C1000066C2000052C1000050C1000059
S11300404EC100004CC100004AC1000048C100007C
S113005046C1000044C1000042C1000040C100008C
S11300603EC100003CC100003AC1000038C100009C
S113007036C1000034C1000032C1000030C10000AC
S11300802EC100002CC100002AC10000790495048F
S1130090B804DC0423056A054605FF0490054406FC
S11300A04E060106D50719063D062806D50736066D
S11300B02F06A20E7F0E610E660E7B0E760E710E5B
S11300C0000000000000005F0000000700070014AB
S11300D07F147F14242A7F2A12231308646236496A
S11300E05522500005030000001C2241000041225B
S11300F01C0014083E081408083E0808005030008C
S113010000080808080800606000002010080402C5
S11301103E5149453E00427F4000426151494621DB
S113012041454B311814127F1027454545393C4A47
S11301304949300171090503364949493606494997
S1130140291E0036360000005636000008142241ED
S11301500014141414140041221408020151090655
S1130160324979413E7E1111117E7F494949363E1B
S1130170414141227F4141221C7F494949417F0934
S11301800909013E4149497A7F0808087F00417FF7
S113019041002040413F017F081422417F404040FC
S11301A0407F020C027F7F0408107F3E4141413EA4
S11301B07F090909063E4151215E7F0919294646F6
S11301C04949493101017F01013F4040403F1F201F
S11301D040201F3F4038403F6314081463070870F1
S11301E008076151494543007F414100020408105A
S11301F0200041417F00040201020440404040408D
S1130200000102040020545454787F484444383890
S113021044444420384444487F3854545418087E95
S11302200901020C5252523E7F0804047800447DB6
S113023040002040443D007F1028440000417F409E
S1130240007C041804787C08040478384444443856
S11302507C14141408081414187C7C08040408483A
S113026054545420043F4440203C4040207C1C20F3
S113027040201C3C4030403C44281028440C505042
S1130280503C4464544C44000836410000007F0054
S113029000004136080010080810080000000000A3
S11302A011241FBECFEFD0E4DEBFCDBF12E0A0E02B
S11302B0B1E0E0E6FFE100E00BBF02C007900D9261
S11302C0AC35B107D9F724E1ACE5B2E001C01D9229
S11302D0AA3AB207E1F70E94A40E0C94AE0F90CE96
S11302E05998662311F05B9A15C05B9813C0AC0152
S11302F0022E02C0559547950A94E2F740FF02C0CA
S11303005C9A01C05C985D9A5D982150310978F738
S1130310599A089527E030E090E0E9CF60E0E0CF1B
S11303200895813009F44CC008F443C0843021F0AE
S1130330853069F080E008958091990290919A0245
S11303400597F0F110929A021092990234C08091AC
S1130350990290919A02059770F110929A02109264
S113036099022EC08FEF85B981E08093980203C073
S113037015B8109298028091990290919A02019670
S113038090939A028093990284E0089515B881E0CD
S11303908093980203C015B8109298028091990234
S11303A090919A02019690939A028093990285E023
S11303B0089581E00895809197028111E7CFEBCFF2
S11303C0809197028111CECFD3CF823061F028F48F
S11303D08823D1F0813021F15DC0843049F0A8F147
S11303E08530F1F057C080919D0281111DC018C065
S11303F02091B9043091BA048091D1049091D2042F
S11304008217930780F521C010929D0210929C02DE
S113041010929B021092BA041092B90481E00895DC
S11304201092970282E00895E0919C02F0E0EA5570
S1130430FB4F808190E09093BA048093B9041092AA
S1130440D2041092D10483E0089581E0809397024E
S11304508091D1049091D20401969093D204809318
S1130460D10484E008951092970280919C02823016
S113047018F010929C0203C08F5F80939C028091BD
S11304809D02815080939D021092D2041092D10457
S113049085E0089580E008956093EA017093EB018C
S11304A08093EC019093ED0160939A0470939B0404
S11304B080939C0490939D0408958BE08093810025
S11304C08DE790E0909389008093880082E0809388
S11304D06F0010928500109284008091EA0190913F
S11304E0EB01A091EC01B091ED0180939A049093FB
S11304F09B04A0939C04B0939D048FB780688FBF26
S113050008951F920F920FB60F9211248F939F9309
S1130510AF93BF9380919A0490919B04A0919C0403
S1130520B0919D040197A109B10980939A04909315
S11305309B04A0939C04B0939D04892B8A2B8B2B42
S113054099F481E080939E048091EA019091EB01FB
S1130550A091EC01B091ED0180939A0490939B04D7
S1130560A0939C04B0939D04BF91AF919F918F91F0
S11305700F900FBE0F901F901895109A119A08951E
S1130580119A109A119820B130E02095309522FBF1
S1130590882780F990E040E150E01098880F991F77
S11305A020B130E02095309522FB662760F970E099
S11305B0862B972B109A4150510979F70895823070
S11305C038F4DEDF90939F0280939E0281E00895C9
S11305D080E00895CF93DF93519A529A539A549A94
S11305E0559A5A9A599A8FE493EC0197F1F700C0FF
S11305F000005A989FEB25E484E09150204080400D
S1130600E1F700C000005A9A599881E287DE83E13D
S113061085DE86E083DE82EC81DE80E27FDE89E0B7
S11306207DDE80E87BDE80E479DEC8EFD1E061E046
S113063080E056DE2197D9F788E070DE8CE06EDE2C
S1130640DF91CF91089580E869DE80E467DE10923F
S1130650980410929904E0EAF2E088E994E0119297
S1130660E817F907E1F70895262F2695269526958C
S113067090E034E5239F800D911D1124442379F0EB
S1130680FC01E056FD4F677081E090E002C0880FE6
S1130690991F6A95E2F79081892B80830895FC0164
S11306A0E056FD4F677081E090E002C0880F991F0B
S11306B06A95E2F7809590818923808308955F92FB
S11306C06F927F928F929F92AF92BF92CF92DF925E
S11306D0EF92FF920F931F93CF93DF93562E262F03
S11306E030E04901880C991C880C991C820E931ED9
S11306F0181419040CF05BC08901000F111F000FBE
S1130700111F000F111F021B130B612CA82EB12CFB
S1130710C50180975C01AA0CBB1CAA0CBB1CA80ECB
S1130720B91E0F2EF9E9CF2EF4E0DF2EF02D0F2E97
S1130730F8E9EF2EF4E0FF2EF02D2BC0FE012491FA
S113074030E0872D652D0E94640F02C035952795F2
S11307508A95E2F720FF09C0F6016081670DF70171
S1130760808141E0860D80DF08C0F6016081670D5D
S1130770F701808140E0860D77DF7394872D90E048
S113078080179107DCF26394862D90E08815990513
S113079074F410161106BCF7862D652D0E94640FA3
S11307A0E501C80FD11DC054DF4F712CC7CF809114
S11307B0980491E0980F852D880F880F850D890F77
S11307C0843518F4809398040EC010929804E9E9D3
S11307D0F4E0808191E0980F852D880F880F880FB1
S11307E08519890F808380919904803320F01092B9
S11307F0980410929904DF91CF911F910F91FF906B
S1130800EF90DF90CF90BF90AF909F908F907F90AC
S11308106F905F9008951F93CF93DF93EC018881CD
S1130820882339F0162F2196612F49DF8991811190
S1130830FBCFDF91CF911F9108950F931F93CF9317
S1130840DF9380E86BDD80E469DDC0EAD2E008E98B
S113085014E061E0899144DDC017D107D1F7DF913D
S1130860CF911F910F9108952F923F924F925F92D3
S11308706F927F928F929F92AF92BF92CF92DF92AC
S1130880EF92FF920F931F93CF93DF9300D000D08A
S113089000D0CDB7DEB785E994E160E070E00F2EBB
S11308A0F2EDAF2EF1E0BF2EF02D0F2EFAEE8F2ECB
S11308B0F1E09F2EF02D0F2EFAE86F2EF1E07F2E3F
S11308C0F02D0F2EFAE54F2EF1E05F2EF02D4AEBBE
S11308D051E01C017A8369836AC1ED91CE2ED12C3B
S11308E089E0C816D10468F4F601EA5BFF4F0C9462
S11308F0700F69817A81620F731F6C527B4F9CE089
S113090011C069817A81620F731F6C527B4F9CE026
S113091037C111928150E9F791506C5A7F4F992356
S113092009F431C1FB018CE0F4CFE2EAF1E0FC838D
S1130930EB8369817A81620F731F6C527B4F7F0155
S1130940F701C190D1907F018B018CE0F6016D011C
S11309509E2F9170D8019D938D01F695E795815056
S1130960B9F7D6016C5A7F4F4E155F0549F70BC195
S1130970E2EAF1E0FC83EB8369817A81620F731F01
S11309806C527B4F7F01F701C190D1907F018B01A5
S113099080E0F6016D019E2F9170D8019D938D0129
S11309A0F695E7958F5F8C30B1F7D6016C5A7F4F7F
S11309B04E155F0541F7E7C0E2E4F1E0FC83EB8309
S11309C069817A81620F731F6C527B4F7F01F7013B
S11309D0C190D1907F018B018CE0F6016D019E2FB7
S11309E09170D8019D938D01F695E7958150B9F7E3
S11309F0D6016C5A7F4F4E145F0449F7C4C0E2E736
S1130A00F1E0FC83EB8369817A81620F731F6C527E
S1130A107B4F7F01F701C190D1907F018B0180E072
S1130A20F6016D019E2F9170D8019D938D01F6956D
S1130A30E7958F5F8C30B1F7D6016C5A7F4F6E14F7
S1130A407F0441F7A0C0E2EDF1E0FC83EB83698110
S1130A507A81620F731F6C527B4F7F01F701C19043
S1130A60D1907F018B018CE0F6016D019E2F917076
S1130A70D8019D938D01F695E7958150B9F7D6017C
S1130A806C5A7F4FE814F90449F77DC0EAEBF1E0B2
S1130A90FC83EB8369817A81620F731F6C527B4FF5
S1130AA07F01F701C190D1907F018B0180E0F601B5
S1130AB06D019E2F9170D8019D938D01F695E79558
S1130AC08F5F8C30B1F7D6016C5A7F4FAE14BF04E0
S1130AD041F759C0EAE8F1E0FC83EB8369817A814C
S1130AE0620F731F6C527B4F7F01F701C190D1904D
S1130AF07F018B0180E0F6016D019E2F9170D8017A
S1130B009D938D01F695E7958F5F8C30B1F7D601F3
S1130B106C5A7F4FE2EAF1E0EE15FF0531F733C07E
S1130B208AE591E09C838B8369817A81620F731FCC
S1130B306C527B4F7C01F701C190D1907F018B01F6
S1130B408CE0BE83AD83F6019E2F9170D8019D93F6
S1130B508D01F695E7958150B9F7AD81BE816C5A48
S1130B607F4FE2E7EE16E1E0FE0629F70CC0119292
S1130B708F5F8C30E1F791506C5A7F4F992319F0B5
S1130B80FB0180E0F4CF245F3F4F2435310509F0A9
S1130B90A4CE89819A8180519C4F9A83898397E05E
S1130BA0290E311CA981BA81A03DBB4021F0D1019D
S1130BB020E030E092CE26960FB6F894DEBF0FBE4A
S1130BC0CDBFDF91CF911F910F91FF90EF90DF90F8
S1130BD0CF90BF90AF909F908F907F906F905F90D9
S1130BE04F903F902F900895CF93DF93482F50E07C
S1130BF04A30510508F041C6FA01E15BFF4F0C94FD
S1130C00700F80919E0290919F0294FF47C02091A3
S1130C10930230919402809101019091020128176E
S1130C203907E0F123E031E045E954E168E171E09E
S1130C30DDC08091D304882331F080919F048330F8
S1130C4008F4F6C03DC18091B3048111FCC5ADC167
S1130C5080919E0290919F0294FDEEC0E9C0809124
S1130C609E0290919F0294FD19C02AC120919E0278
S1130C7030919F0234FD99C101C680919E029091EA
S1130C809F0294FD0BC0DFC51092B8041092B70404
S1130C90109294021092930281E0F0C582E0809356
S1130CA00001E091B704F091B804C2EAD4E09F01D6
S1130CB0ADECBCEC0E94790FAC0156954795569566
S1130CC04795569547959A01220F331FCA01880FFD
S1130CD0991F880F991F880F991F820F931F9F01D7
S1130CE0281B390BC901805D8A839A010E94790F00
S1130CF09695879596958795969587959C01220F4D
S1130D00331F880F991F880F991F880F991F820F0F
S1130D10931F481B590B405D49839F0136952795C6
S1130D2036952795ABE7B4E10E94790FAC0156954F
S1130D3047959A01ADECBCEC0E94790F9695879586
S1130D4096958795969587959C01220F331F880F5A
S1130D50991F880F991F880F991F820F931F481B93
S1130D60590B405D488380919E0290919F0284FFBD
S1130D7008C0BF0180919502909196020E948D0F48
S1130D8017C085FF0BC080919502909196020E9436
S1130D90880F9093B8048093B7040AC095FF08C0E5
S1130DA060E070E080919502909196020E948D0F10
S1130DB0809193029091940220910101309102015B
S1130DC08217930708F057C5019690939402809375
S1130DD0930282E053C591919D938150E1F7295F7D
S1130DE03F4F495F5F4F2617370721F0DA01F901BA
S1130DF087E0F1CFE9EAF4E010821182138284E003
S1130E00809300011092D30481E080939F04109298
S1130E10B3041092A1041092A00484E190E0909392
S1130E20D0048093CF041092A5041EDD83E026C570
S1130E3086E08093000122C520919F042F5F2093B8
S1130E409F0485E1289F9001112422513F4F45E9D9
S1130E5054E16AEA74E10BC091919D938150E1F7EA
S1130E60295F3F4F495F5F4F4617570721F0DA016B
S1130E70F90187E0F1CFE9EAF4E0108211821382EC
S1130E802091A0043091A1048091CF049091D004CA
S1130E90820F931F9093A1048093A00484E0809315
S1130EA000011092D3041092B30484E190E0909373
S1130EB0D0048093CF041092A504D6DC87E0DEC46E
S1130EC089E080930001E091A004F091A104C2EABA
S1130ED0D4E09F01ADECBCEC0E94790FAC015695B7
S1130EE0479556954795569547959A01220F331F76
S1130EF0CA01880F991F880F991F880F991F820FA5
S1130F00931FDF01A81BB90BCD01805D8A839A0171
S1130F10ADECBCECEED7969587959695879596950E
S1130F2087959C01220F331F880F991F880F991FE3
S1130F30880F991F820F931F481B590B405D4983EB
S1130F409F013695279536952795ABE7B4E1D1D720
S1130F50AC01569547959A01ADECBCECCAD7969571
S1130F60879596958795969587959C01220F331FB3
S1130F70880F991F880F991F880F991F820F931F3D
S1130F80481B590B405D48838091B7049091B80485
S1130F908E179F0720F4F093B804E093B7041092DF
S1130FA094021092930289E069C48091AC04811187
S1130FB010C080919E0290919F02992354F4E9EA13
S1130FC0F4E081E083838081848381818583178237
S1130FD016826091A904663009F452C080919E0281
S1130FE090919F0290FF49C08091AA04262F30E07F
S1130FF0482F50E0F901B7E08B9FE00DF11D11245B
S1131000EB56FB4E8181811119C0CA01880F991FCB
S1131010880F991F880F991F841B950B8B569B4E25
S1131020FC01E20FF31F108221E0260F2093A90494
S1131030FC01E20FF11D24E020832DC1833009F06F
S11310402AC1CA01880F991F880F991F880F991FF9
S1131050841B950B8B569B4EFC01E20FF31F1082F1
S113106021E0260F2093A904FC01E20FF11D24E0E6
S1131070208381E08093D3040EC1662309F44FC01A
S113108080919E0290919F0291FF49C08091AA0491
S1131090462F50E0282F30E0FA0197E0899FE00DB9
S11310A0F11D1124EC56FB4E8081811119C0C90138
S11310B0880F991F880F991F880F991F821B930B04
S11310C08B569B4EFC01E40FF51F10822FEF260F69
S11310D02093A904FC01E20FF11D24E02083DBC06E
S11310E0833009F0D8C0C901880F991F880F991F50
S11310F0880F991F821B930B8B569B4EFC01E40FA8
S1131100F51F10822FEF260F2093A904FC01E20F94
S1131110F11D24E0208381E08093D304BCC080913E
S1131120AA04882309F45EC020919E0230919F0294
S113113033FF55C0A82FB0E0262F30E0AD01415059
S11311405109FA01EE0FFF1FEE0FFF1FEE0FFF1FF5
S1131150E41BF50BEB56FB4EE20FF31F908191114C
S11311601CC0FD01EE0FFF1FEE0FFF1FEE0FFF1F50
S1131170EA1BFB0BEB56FB4EE20FF31F1082815070
S11311808093AA04A7E08A9F200D311D1124F90140
S1131190EB56FB4E84E080837EC0933009F07BC025
S11311A0FD01EE0FFF1FEE0FFF1FEE0FFF1FEA1BE7
S11311B0FB0BEB56FB4EE20FF31F10828150809322
S11311C0AA04B7E08B9F200D311D1124F901EB56C1
S11311D0FB4E84E0808381E08093D3045CC0823042
S11311E009F459C020919E0230919F0232FF53C0EE
S11311F0A82FB0E0262F30E0AD014F5F5F4FFA011A
S1131200EE0FFF1FEE0FFF1FEE0FFF1FE41BF50B8A
S1131210EB56FB4EE20FF31F908191111CC0FD01B0
S1131220EE0FFF1FEE0FFF1FEE0FFF1FEA1BFB0B5E
S1131230EB56FB4EE20FF31F10828F5F8093AA04DC
S113124097E0899F200D311D1124F901EB56FB4EC7
S113125084E0808320C09330F1F4FD01EE0FFF1F82
S1131260EE0FFF1FEE0FFF1FEA1BFB0BEB56FB4EAF
S1131270E20FF31F10828F5F8093AA04A7E08A9F76
S1131280200D311D1124F901EB56FB4E84E08083BF
S113129081E08093D304E9EAF4E02481808182131D
S11312A004C091818581981781F08091AC048823D2
S11312B061F0E091AE04B7E0EB9FF0011124EB562E
S11312C0FB4EE20FF11D86E0808380919414882305
S11312D0B9F0A82FB0E0AA0FBB1FA754BB4F1196BB
S11312E0EC9111979C9137E0E39FF0011124EB56A8
S11312F0FB4EE90FF11D1082815059F7109294149E
S11313008091AF049091B0048E31910558F42091EE
S1131310AC04222309F4BEC101969093B0048093D7
S1131320AF04B8C18091AC04882309F4B3C13091EF
S1131330AE04422F50E0632F70E0FA0187E0389F3B
S1131340E00DF11D1124EB56FB4EA08180919B0210
S1131350E82FF0E0EA55FB4F9AE09083823018F0D2
S113136010929B0203C08F5F80939B0290919D0219
S11313709F5F90939D02A43021F481E08093B30495
S113138017C0CB01880F991F880F991F880F991FC9
S1131390861B970B8B569B4EFC01E40FF51F48E010
S11313A04083EBEBF4E02083318381E08093941459
S11313B08091AD04863009F45CC04091AE04282FBE
S11313C030E02F5F3F4F642F70E0F90197E0499FB1
S11313D0E00DF11D1124EB56FB4E9081923070F517
S11313E0FB01EE0FFF1FEE0FFF1FEE0FFF1FDF01CC
S11313F0A61BB70BBD016B567B4EFB01E20FF31F1F
S113140058E0508320919414E22FF0E0EE0FFF1F78
S1131410E554FB4F31E0380F308341832F5F209335
S11314209414913019F52091A0043091A1042F5FF8
S11314303F4F3093A1042093A00418C0923089F444
S1131440AB01440F551F440F551F440F551F461B36
S1131450570B4B565B4EFA01E20FF31F93E0908358
S113146005C0943019F491E09093B304882309F4EF
S113147056C02091AE04E82FF0E0AF01415051096D
S1131480622F70E0FA01B7E02B9FE00DF11D1124EB
S1131490EB56FB4E9081923058F5FB01EE0FFF1F87
S11314A0EE0FFF1FEE0FFF1FE61BF70BEB56FB4E75
S11314B0E40FF51F38E0308330919414E32FF0E00B
S11314C0EE0FFF1FE554FB4F4FEF480F408321837E
S11314D03F5F30939414913011F52091A004309122
S11314E0A1042F5F3F4F3093A1042093A00417C0A1
S11314F0923081F4FB01EE0FFF1FEE0FFF1FEE0F82
S1131500FF1FE61BF70BEB56FB4EE40FF51F93E0B2
S1131510908305C0943019F491E09093B3049091B2
S1131520AE04992309F45BC0292F30E0215031091E
S1131530682F70E0F901EE0FFF1FEE0FFF1FEE0F93
S1131540FF1FE21BF30BEB56FB4EE60FF71F408128
S1131550423058F5F901EE0FFF1FEE0FFF1FEE0F9B
S1131560FF1FE21BF30BEB56FB4EE60FF71F28E0C1
S1131570208320919414E22FF0E0EE0FFF1FE55436
S1131580FB4F80833FEF390F31832F5F20939414F7
S1131590413011F52091A0043091A1042F5F3F4FF9
S11315A03093A1042093A00417C0423081F4F901C0
S11315B0EE0FFF1FEE0FFF1FEE0FFF1FE21BF30BDB
S11315C0EB56FB4EE60FF71F23E0208305C04430A3
S11315D019F421E02093B304923009F456C0292F62
S11315E030E02F5F3F4F682F70E0F901EE0FFF1FCF
S11315F0EE0FFF1FEE0FFF1FE21BF30BEB56FB4E2C
S1131600E60FF71F4081423048F5F901EE0FFF1F46
S1131610EE0FFF1FEE0FFF1FE21BF30BEB56FB4E0B
S1131620E60FF71F28E0208320919414E22FF0E0C6
S1131630EE0FFF1FE554FB4F80839F5F91832F5F65
S113164020939414413009F58091A0049091A10451
S113165001969093A1048093A00417C0423081F4B2
S1131660F901EE0FFF1FEE0FFF1FEE0FFF1FE21B2E
S1131670F30BEB56FB4EE60FF71F83E0808305C0A8
S1131680443019F481E08093B304E9EAF4E017826A
S113169016821382E9D8C091A004D091A104E2EA91
S11316A0F4E09E01ADECBCEC24D4AC015695479516
S11316B056954795569547959A01220F331FCA01AF
S11316C0880F991F880F991F880F991F820F931FE6
S11316D09E01281B390BC901805D82839A0109D4BC
S11316E09695879596958795969587959C01220F53
S11316F0331F880F991F880F991F880F991F820F16
S1131700931F481B590B405D41839E0136952795D5
S113171036952795ABE7B4E1ECD3AC0156954795E4
S11317209A01ADECBCECE5D3969587959695879593
S1131730969587959C01220F331F880F991F880F58
S1131740991F880F991F820F931F481B590B405DE7
S113175040838091A5048A3088F08091CF049091D1
S1131760D00401979093D0048093CF04892B19F46B
S113177081E08093B3041092A50403C08F5F80932B
S1131780A504C091CF04D091D004E4EBF4E09E0111
S1131790ADECBCECAED3AC01569547955695479548
S11317A0569547959A01220F331FCA01880F991F36
S11317B0880F991F880F991F820F931FDE01A81BA2
S11317C0B90BCD01805D82839A01ADECBCEC91D361
S11317D09695879596958795969587959C01220F62
S11317E0331F880F991F880F991F880F991F820F25
S11317F0931F481B590B405D41839E0136952795E5
S113180036952795ABE7B4E174D3AC01569547956B
S11318109A01ADECBCEC6DD396958795969587951A
S1131820969587959C01220F331F880F991F880F67
S1131830991F880F991F820F931F481B590B405DF6
S1131840408384E01BC085E0809300018091A00464
S11318509091A1042091B7043091B8042817390756
S113186020F49093B8048093B704109294021092D9
S1131870930285E003C082E001C080E0DF91CF9154
S11318800895CF92DF92EF92FF920F931F93CF931D
S1131890DF930F2EF4EDEF2EF4E0FF2EF02DD0E0C9
S11318A010C0F80141918F016D2F8C2F0E943403D9
S11318B0CF5FC435B1F7DF5FF4E5EF0EF11CD03331
S11318C019F08701C0E0EDCF0F2EF8E9EF2EF4E018
S11318D0FF2EF02DF7011082C9E9D4E018E2188335
S11318E061E083E50E945F038AE0F7018083188347
S11318F00F2EF2EACF2EF4E0DF2EF02D61E0F60198
S113190080810E945F038FE0F7018083188361E088
S1131910F60181810E945F0384E1F70180831883CB
S113192061E0F60182810E945F0387E3F70180830F
S1131930188361E084E50E945F0381E4F7018083FA
S113194018830F2EF4EBCF2EF4E0DF2EF02D61E0A0
S1131950F60180810E945F0386E4F7018083188387
S113196061E0F60181810E945F038BE4F7018083CB
S1131970188361E0F60182810E945F03DF91CF91B9
S11319801F910F91FF90EF90DF90CF900895CF9229
S1131990DF92FF920F931F93CF93DF93809198026E
S11319A0882351F0109298048AE08093990461E0AE
S11319B088E392E00E940B0408E914E0F801108225
S11319C0C9E9D4E084E1888361E08DE492E00E9477
S11319D00B04F80110820F2EFEE1DF2EF02DD882C9
S11319E061E082E492E00E940B04F80110820F2E61
S11319F0F8E2FF2EF02DF88261E088E40E945F0394
S1131A0085E0F8018083F88261E089E60E945F0343
S1131A108AE0F8018083F88261E087E60E945F0330
S1131A208FE0F8018083F88261E088E60E945F031A
S1131A3089E1F8018083F88261E083E50E945F0315
S1131A40F801D082F88261E083E60E945F0383E2BA
S1131A50F8018083F88261E08FE60E945F03F80159
S1131A60F082F88261E082E70E945F038DE2F80170
S1131A708083F88261E085E60E945F0382E3F801D7
S1131A808083F88261E08AE30E945F038CE3F801BB
S1131A908083F8820F2EF2EACF2EF4E0DF2EF02DB1
S1131AA061E0F60180810E945F0381E4F801808394
S1131AB0F88261E0F60181810E945F0386E4F80107
S1131AC08083F88261E0F60182810E945F03DF91E6
S1131AD0CF911F910F91FF90DF90CF900895FF92C7
S1131AE00F931F93CF93DF9308E914E0F80110825A
S1131AF0C9E9D4E00F2EFAE0FF2EF02DF88262E05F
S1131B0082E392E00E940B0486E4F8018083F88269
S1131B1080919F0462E0805D0E945F03F80110825F
S1131B208EE1888361E088E292E00E940B04F80170
S1131B30108288E2888361E08CE192E00E940B04C9
S1131B40DF91CF911F910F91FF900895CF92DF9273
S1131B50EF92FF920F931F93CF93DF9308E914E062
S1131B60F8011082C9E9D4E0188262E083E192E0CE
S1131B700E940B04F8011082188262E087E40E943C
S1131B805F03F80110820F2EFEE1FF2EF02DF88284
S1131B9061E08CE092E00E940B040F2EF8E2EF2E3D
S1131BA0F02DF801E082F8820F2EF2EACF2EF4E055
S1131BB0DF2EF02D61E0F60180810E945F038DE24B
S1131BC0F8018083F88261E0F60181810E945F035D
S1131BD082E3F8018083F88261E0F60182810E9449
S1131BE05F03F8011082E88261E080E092E00E94E5
S1131BF00B04DF91CF911F910F91FF90EF90DF9035
S1131C00CF900895CF92DF92EF92FF920F931F939C
S1131C10CF93DF9308E914E0F8011082C9E9D4E016
S1131C20188262E088EF91E00E940B04F8011082B0
S1131C300F2EFEE1FF2EF02DF88261E08CE092E0A1
S1131C400E940B040F2EF8E2EF2EF02DF801E08233
S1131C50F8820F2EF2EACF2EF4E0DF2EF02D61E0B1
S1131C60F60180810E945F038DE2F8018083F8828F
S1131C7061E0F60181810E945F0382E3F8018083C1
S1131C80F88261E0F60182810E945F03F80110820C
S1131C90E88261E080E092E00E940B04DF91CF9142
S1131CA01F910F91FF90EF90DF90CF90089590E0F7
S1131CB08730910520F4FC01E75AFF4F11C180E001
S1131CC00895809100018430D1F42EC080910001E8
S1131CD08230A9F08530D1F0863069F1893021F560
S1131CE01CC0809100018230C1F409C080910001C0
S1131CF0843009F519C080910001823039F40E94C2
S1131D00230345DE0E941D0482E008950E942303FC
S1131D101DDF0E941D0484E008950E94230372DFE6
S1131D200E941D0486E008950E942303AADD0E94F8
S1131D301D0483E008950E942303D1DE0E941D0444
S1131D4085E0089581E00895CF93DF93CDB7DEB7A2
S1131D502A970FB6F894DEBF0FBECDBF83E081B9DA
S1131D608CEF82B91FEF14B915B81AB91BB80E94C9
S1131D70EA020E9423030E941D040E94BD028AE01D
S1131D80EEEEF1E0DE01119601900D928A95E1F7F5
S1131D90E8E8F2E0108381E090E0A0E0B0E0818325
S1131DA09283A383B48385839683A783B0872FED1F
S1131DB032E032872187EDE7F2E010834AE050E019
S1131DC060E070E0418352836383748385839683E8
S1131DD0A783B08727E53EE032872187E2E7F2E078
S1131DE01083418352836383748385839683A7839B
S1131DF0B08724EF35E032872187E7E6F2E01083ED
S1131E00418352836383748385839683A783B087D6
S1131E1021E931E032872187ECE5F2E01083418348
S1131E2052836383748385839683A783B08785EE07
S1131E3091E0928781876AE070E080E090E00E9400
S1131E404C020E945D027E018BE0E80EF11CDE0173
S1131E5011966D01F601019111916F01D80115964A
S1131E604D915D916D917C91189711968D919D91F5
S1131E700D90BC91A02D481759076A077B0771F490
S1131E80F80180810184F285E02D90E00995D80164
S1131E908C93F8011582168217821086F8018581C9
S1131EA09681A781B0850196A11DB11D8583968376
S1131EB0A783B087EC14FD0469F680919E048823FF
S1131EC0E1F310929E04C3CF991B79E004C0991FDB
S1131ED0961708F0961B881F7A95C9F78095089580
S1131EE0EE0FFF1F0024001C0BBE0790F691E02D9F
S1131EF00994A29FB001B39FC001A39F700D811DDF
S1131F001124911DB29F700D811D1124911D0895FE
S1131F10A8E1B0E042E050E005C012D0272F11C084
S1131F20DC01CB01FC01F999FECF06C0F2BDE1BD95
S1131F30F89A319600B40D9241505040B8F7089584
S1131F40262FF999FECF1FBA92BD81BD20BD0FB6D1
S1131F50F894FA9AF99A0FBE01960895F894FFCF6F
S1131F60020A000400010000000000070007000747
S1131F700102000000000000040000000000000056
S1131F800700070007000000000200000004000032
S1131F900000000000070007000700000000000028
S1131FA00002F801640262046204610861086108C5
S1131FB06D0B610861086108FF0FEC031204020451
S1131FC0020402080108010801080308020464026B
S1131FD0B803AB0A5705FF030F0217020F020702EB
S1131FE02F025702FF035705AB0AFC030606030C36
S1131FF09D0B9D0B9909030C0E07F8015801A801CC
S1132000F000AE075F0FAF0FFA0AF707FA0AAF0F37
S11320107F0FAF0FFA0AF707FA021C001600FA0046
S11320203A01F402EE07FE079E059E047C02F801C5
S1132030F000FC03FE071C0D990999090C03FE0727
S1132040FC0390009000F6060F0F010000008802C8
S11320507D02720267025C02594F552057494E00B7
S113206050726573732053746172740053636F729A
S1132070653A0047414D454F5645520050726573CD
S11320807320537461727400436F6D706C65746572
S113209064004C6576656C0052554D424C494E4780
S11320A0210053454C3A20434C45415200523A5387
S10F20B0415645204C3A4C4F414400007E
S9030000FC
